:100000000C9445010C9476010C9476010C947601C5
:100010000C9476010C9476010C9476010C94760184
:100020000C9476010C94EF100C94EF100C94EF10DC
:100030000C9476010C94E50F0C9476010C947601E7
:100040000C9476010C9483110C9476010C94760137
:100050000C9476010C9476010C9476010C94A51006
:100060000C9476010C946F100C9445100C9476014E
:100070000C9476010C9476010C9476010C94760124
:100080000C9455110C9476010C9476010C94760125
:100090000C9476010C9476010C9476010C94760104
:1000A0000C9476010C9476010C9427110C94760133
:1000B0000C9476010C9476010C9476010C94F91052
:1000C0000C9476010C9476010C9476010C947601D4
:1000D0000C9476010C9476010C9476010C947601C4
:1000E0000C9476010C941F030C9437030C942F038B
:1000F0000C949B020C9461090C9414030C94201A28
:100100000C944A030C941C030C940A030C940802EC
:100110000C94A80D0C9441030C944B030C942503F0
:100120000C943D030C944B090C94B4010C944F03B4
:100130000C9429030C94FE110C9416020C94F108F3
:100140000C9445030C9410030C94CF090C941803E1
:100150000C9478010C94A5010C942A090C944E027D
:100160000C94330300002100240027002A002D00F6
:100170003000330001010000040107010A01000002
:1001800020002300260029002C002F00320000014F
:10019000000003010601090100000A0B02090C0D11
:1001A0000E0807030401000000000000000000002A
:1001B000000000000000000000000000000000003F
:1001C00000000000121110000000000000000000FC
:1001D000000000000000000000000000000002011C
:1001E0000210202008081020401020408002010248
:1001F0000108040201010204081020408080402010
:10020000100804020180040201804020100804024A
:1002100001080402010102040810204080010204C8
:10022000081020408000002200250028002B002E0E
:10023000003100340002010000050108010B010536
:10024000050505070508080808020202020A0A084F
:100250000804040404010101010101010103030375
:100260000303030303040707070C0C0C0C0C0C0C12
:100270000C0202020206060606060606060B0B0B19
:100280000B0B0B0B0B00FE11201A11241FBECFEF1E
:10029000D1E2DEBFCDBF00E00CBF13E0A0E0B2E0D2
:1002A000E8E0F0E400E00BBF02C007900D92AA3333
:1002B000B107D9F725E0AAE3B3E001C01D92A13848
:1002C000B207E1F711E0C4E4D1E000E006C02197F5
:1002D0000109802FFE010E94A21DC334D10780E0D6
:1002E0000807A9F70E94EF120C94F21F0C9400006B
:1002F000AF92BF92CF92DF92EF92FF920F931F9334
:10030000CF93DF936C017B018B01040F151FEB0171
:100310005E01AE18BF08C017D10759F06991D60128
:10032000ED91FC910190F081E02DC6011995892B8A
:1003300079F7C501DF91CF911F910F91FF90EF9059
:10034000DF90CF90BF90AF900895FC01538D448D06
:10035000252F30E0842F90E0821B930B541710F070
:10036000CF96089501970895FC01918D828D98177D
:1003700061F0A28DAE0FBF2FB11D5D968C91928D55
:100380009F5F9F73928F90E008958FEF9FEF089586
:100390002FB7F8948091730390917403A091750323
:1003A000B09176032FBF80939F039093A003A093F7
:1003B000A103B093A20387E993E00E94B40197FFE1
:1003C00026C02FB7F8948091730390917403A09185
:1003D0007503B09176032FBF40919F035091A00306
:1003E0006091A1037091A203841B950BA60BB70B20
:1003F00040919B0350919C0360919D0370919E03DB
:1004000084179507A607B707B0F28FEF9FEF0895FF
:10041000FC01918D828D981731F0828DE80FF11DCE
:10042000858D90E008958FEF9FEF0895FC01918DE9
:10043000228D892F90E0805C9F4F821B91098F73E2
:100440009927089587E993E00E94160221E0892BFD
:1004500009F420E0822F0895FC01A48DA80FB92F84
:10046000B11DA35ABF4F2C91848D90E001968F73DC
:100470009927848FA689B7892C93A089B1898C91FB
:10048000837080648C93938D848D981306C002884A
:10049000F389E02D80818F7D80830895EF92FF9214
:1004A0000F931F93CF93DF93EC0181E0888F9B8D97
:1004B0008C8D98131AC0E889F989808185FF15C051
:1004C0009FB7F894EE89FF896083E889F989808174
:1004D0008370806480839FBF81E090E0DF91CF9143
:1004E0001F910F91FF90EF900895F62E0B8D10E065
:1004F0000F5F1F4F0F731127E02E8C8D8E110CC0D4
:100500000FB607FCFACFE889F989808185FFF5CF1E
:10051000CE010E942C02F1CFEB8DEC0FFD2FF11DCF
:10052000E35AFF4FF0829FB7F8940B8FEA89FB895B
:1005300080818062CFCFCF93DF93EC01888D8823B9
:10054000B9F0AA89BB89E889F9898C9185FD03C036
:10055000808186FD0DC00FB607FCF7CF8C9185FF1B
:10056000F2CF808185FFEDCFCE010E942C02E9CF32
:10057000DF91CF91089580E090E0892B29F00E94CF
:10058000220281110E94000080E090E0892B49F056
:1005900080E090E0892B29F00E94000081110E94E8
:1005A000000080E090E0892B49F080E090E0892B0A
:1005B00029F00E94000081110E94000080E090E07C
:1005C000892B49F080E090E0892B29F00E940000FF
:1005D00081110C94000008958150823108F05AC0B6
:1005E000E82FF0E08827E850FD4F8F4F0C94A21DB4
:1005F00018031C030A03100314034A031F032503F3
:1006000029032F03330337033D0341034A03450303
:100610004B034F03809180008F7780938000089573
:10062000809180008F7DF9CF80918000877FF5CF0A
:1006300084B58F7784BD089584B58F7DFBCF80917D
:10064000B0008F778093B00008958091B0008F7DC7
:10065000F9CF809190008F778093900008958091DA
:1006600090008F7DF9CF80919000877FF5CF8091AA
:10067000A0008F778093A00008958091A0008F7DC7
:10068000F9CF8091A000877FF5CF809120018F77EF
:10069000809320010895809120018F7DF9CF809172
:1006A0002001877FF5CFCF93DF93282F30E0F9012A
:1006B000E856FE4F8491F901E152FE4FD491F901C1
:1006C000E15CFD4FC491CC23A1F081110E94EC02AA
:1006D000EC2FF0E0EE0FFF1FE258FE4FA591B49112
:1006E000EC91ED2381E090E009F480E0DF91CF917F
:1006F000089580E090E0FACF1F93CF93DF93282FE7
:1007000030E0F901E856FE4F8491F901E152FE4FC5
:10071000D491F901E15CFD4FC491CC23A9F0162FCF
:1007200081110E94EC02EC2FF0E0EE0FFF1FEB5D59
:10073000FD4FA591B4918FB7F894EC91111108C0B9
:10074000D095DE23DC938FBFDF91CF911F91089569
:10075000DE2BF8CF9091050289130DC0EEEDF1E08C
:10076000E4919FEF90930502E230E1F038F4EE233C
:1007700081F0E13089F060E00C947C03E43049F1D1
:1007800010F1E530C1F7909173009D7F9093730055
:10079000F2CF10926E00EFCF90916F009D7F9093FB
:1007A0006F00E9CF909170009D7F9093700091E071
:1007B0009093B0009091B100987F94609093B100B5
:1007C0001092B300D8CF909171009D7F90937100EB
:1007D000D2CF909172009D7F90937200CCCFCF9337
:1007E000DF9390E0FC01E152FE4F2491815C9D4F2C
:1007F000FC0184918823C9F090E0880F991FFC01C7
:10080000EC59FE4FA591B491FC01EB5DFD4FC591F4
:10081000D49161110DC09FB7F8948C9120958223DB
:100820008C938881282328839FBFDF91CF910895DF
:10083000623051F49FB7F8943C91822F80958323C6
:100840008C93E8812E2BEFCF8FB7F894EC912E2B61
:100850002C938FBFEACF0F931F93CF938B0190916F
:100860000502891731F09F3FA1F1CF911F910F91A0
:100870000895EEEDF1E0C491C7FDF7CF61E00E946D
:10088000EF03CC2319F0C23009F00DC1980150E0FC
:1008900040E068E478EE81E090E00E94C51BBA0178
:1008A000A9014150510961097109CC2309F499C189
:1008B0008091B100887F84608093B100C23009F4D8
:1008C0007DC10CF074C1CC2309F48FC1C13069F62D
:1008D00001C180930502EEEDF1E0C4919C2FCF3F62
:1008E00009F4C3CFC23009F473C058F4CC2391F19A
:1008F000C13009F44BC097FDB8CF61E00E94EF030F
:10090000C2CFC43009F4ADC008F488C0C53099F72F
:1009100010922001109221019091210198609093F2
:10092000210190912101916090932101282F30E0C5
:10093000F901E15CFD4FE491F0E0EE0FFF1FEB5D8C
:10094000FD4F45915491F901E152FE4FE491E0933E
:10095000770394CF14BC15BC94B5926094BD95B543
:10096000916095BD282F30E0F901E15CFD4FE491E5
:10097000F0E0EE0FFF1FEB5DFD4F45915491F90143
:10098000E152FE4FE491E0937E0378CF1092800015
:1009900010928100909181009860909381009091D5
:1009A0008100916090938100282F30E0F901E15C93
:1009B000FD4FE491F0E0EE0FFF1FEB5DFD4F459121
:1009C0005491F901E152FE4FE491E0937D0356CF3B
:1009D0001092B0001092B1009091B000926090938C
:1009E000B0009091B10091609093B100282F30E059
:1009F000F901E15CFD4FE491F0E0EE0FFF1FEB5DCC
:100A0000FD4F4591549150937C0340937B03F90132
:100A1000E152FE4FE491E0937A0330CF10929000C0
:100A20001092910090919100986090939100909114
:100A30009100916090939100282F30E0F901E15CE2
:100A4000FD4FE491F0E0EE0FFF1FEB5DFD4F459190
:100A50005491F901E152FE4FE491E0937903C3E030
:100A60000DCF1092A0001092A1009091A10098606B
:100A70009093A1009091A10091609093A100282FE4
:100A800030E0F901E15CFD4FE491F0E0EE0FFF1F73
:100A9000EB5DFD4F45915491F901E152FE4FE49118
:100AA000E0937803EBCE980150E040E060E072E123
:100AB0008AE790E00E94C51BBA01A9014150510983
:100AC00061097109C130D9F480918100887F81600A
:100AD0008093810050938900409388008FEF9FEFAF
:100AE000DC0180938F0390939003A0939103B093C4
:100AF000920380916F00826080936F00B6CEC33006
:100B0000D9F480919100887F816080939100509307
:100B10009900409398008FEF9FEFDC01809387034B
:100B200090938803A0938903B0938A038091710006
:100B300082608093710099CEC430D9F48091A10075
:100B4000887F81608093A1005093A9004093A80002
:100B50008FEF9FEFDC018093830390938403A09336
:100B60008503B09386038091720082608093720047
:100B70007CCEC53009F0A2CE80912101887F8160B2
:100B80008093210150932901409328018FEF9FEF1B
:100B9000DC0180937F0390938003A0938103B09343
:100BA0008203809173008260809373005ECEC430B4
:100BB00059F20CF4ACCFC53029F357CE4093B300B3
:100BC0008FEF9FEFDC0180938B0390938C03A093B6
:100BD0008D03B0938E0380917000826080937000CB
:100BE00044CE85B5887F836085BD47BD8FEF9FEF7D
:100BF000DC018093930390939403A0939503B093A7
:100C0000960380916E00826080936E002ECE3FB777
:100C1000F8948091410390914203A0914303B091D5
:100C2000440326B5A89B05C02F3F19F00196A11DCE
:100C3000B11D3FBFBA2FA92F982F8827BC01CD0126
:100C4000620F711D811D911D42E0660F771F881F85
:100C5000991F4A95D1F70895CF92DF92EF92FF92B4
:100C60000F931F93CF93DF9300D000D000D0CDB768
:100C7000DEB7C090D404D090D504E090D604F090B4
:100C8000D7040E9407066C157D058E059F0550F45C
:100C90000E9407066093D4047093D5048093D60411
:100CA0009093D7040E9407060091D4041091D504B4
:100CB0002091D6043091D704601B710B820B930BEB
:100CC0006C32714081059105A0F2F8948091C904BD
:100CD0009091CA049A838983E091CE04F091CF0465
:100CE000DF011196808189879091C504E091D80435
:100CF000F091D9048091DA04992309F449C09081D4
:100D0000982B98879081809589238F838F818C83FE
:100D100088E08B8358856F8149853B812C8189814F
:100D20009A81508347FD252F3A952083262F39F04D
:100D3000441F00C000006083000000C0F2CF38E014
:100D40004D9160830000019761F7F093D904E0931F
:100D5000D80449873B832C839A83898378940E94A3
:100D600007066093D4047093D5048093D6049093BF
:100D7000D70429960FB6F894DEBF0FBECDBFDF9122
:100D8000CF911F910F91FF90EF90DF90CF9008953A
:100D90009081982B98879081809589238F838F816C
:100DA0008E8388E08D8358856F8149853D812E81B2
:100DB00089819A81508347FD252F00C000C0208380
:100DC00000C000C000C000C000C060830000262F2B
:100DD0003A9541F0441F000000C000C000C000C0B0
:100DE00000C0E8CF38E04D9100C0608300C001979B
:100DF00009F7F093D904E093D80449873D832E8303
:100E0000ABCF8F929F92AF92BF92CF92DF92EF9231
:100E1000FF924B015C010E9407066B017C010E945E
:100E200007066C197D098E099F09683E734081058C
:100E30009105A8F321E0821A9108A108B10888EE73
:100E4000C80E83E0D81EE11CF11C81149104A1049A
:100E5000B10429F7FF90EF90DF90CF90BF90AF9053
:100E60009F908F900895CF92DF92EF92FF92CF9351
:100E7000DF93EC01603282E07807CCF5653B7105C9
:100E800014F064EB70E0898128E830E0281B310918
:100E900087FD3395220F331F220F331F6901330F54
:100EA000EE08FF088A8128E532E0281B310987FD1A
:100EB0003395220F331F220F331F032E000C440BD8
:100EC000550B2C193D094E095F09DB0177FF02C064
:100ED000B0E0A0E00E94EF1B24EB30E040E050E0E7
:100EE0000E94C51BC20ED31EE41EF51EB601E8818A
:100EF000E03370F5298188E890E0821B910927FD95
:100F00009395880F991F880F991F681779077CF0B0
:100F10002A8188E592E0821B910927FD9395880F2D
:100F2000991F880F991F681779070CF4CB01029756
:100F3000880F991F4FB7F8942E2F30E0F901EE0F6C
:100F4000FF1FE20FF31FEC5CFB4F928381834FBFC7
:100F5000DF91CF91FF90EF90DF90CF9008951F9396
:100F6000CF93DF93EC01162F8881803308F04EC0B9
:100F700061E0812F0E94EF038881282F30E0F90182
:100F8000EE0FFF1FE20FF31FEC5CFB4F1F7360813E
:100F9000607C612B608319821A822CE0622F0E9490
:100FA000961D829FB001112430E020E0AB01420F7A
:100FB000531FFA01EE0FFF1FE40FF51FEC5CFB4F10
:100FC000908196FD16C02F5F3F4F2C30310571F791
:100FD000813009F51092800082E0809381001092A8
:100FE000850010928400B19A80916F008260809396
:100FF0006F00E8818E2F90E0FC01EE0FFF1FE80FDD
:10100000F91FEC5CFB4F8081806480838881DF91D5
:10101000CF911F910895823061F4109290008093D7
:101020009100109295001092940088BB80937100FB
:10103000E0CF833069F41092A00082E08093A10099
:101040001092A5001092A40089BB80937200D1CFAA
:101050008111CFCF1092200182E080932101109264
:101060002501109224018ABB80937300C2CFAF92F6
:10107000BF92CF92DF92EF92FF920F931F93CF9385
:10108000DF936B017A01EC01C65CDC4F28813CE008
:10109000389F8001399F100D1124A090C404B12CF9
:1010A00027FF1FC0FB011182108288818F5F888318
:1010B00088819801280F311D87FD3A95F6012A1580
:1010C0003B051CF488818C30C4F1808191810496A9
:1010D00080349C4908F473C0F601808191810496A4
:1010E00070C088819801280F311D87FD3A952A1517
:1010F0003B05DCF68881A801480F511D87FD5A95F4
:10110000FA01EE0FFF1FE40FF51FEC5CFB4F80812F
:1011100086FFCBCF8881F801E80FF11D87FDFA9596
:10112000CF01EE0FFF1FE80FF91FEC5CFB4F808132
:1011300060E08F730E947C03B8CF80819181288109
:10114000A801420F511D27FD5A959A01FA01EE0F91
:10115000FF1FE20FF31FEC5CFB4F21813281820FF6
:10116000931FF7019183808388819801280F311D97
:1011700087FD3A95F901EE0FFF1FE20FF31FEC5CBC
:10118000FB4F808186FF22C08881080F111D87FDDB
:101190001A95F801EE0FFF1FE00FF11FEC5CFB4FFB
:1011A000808161E08F73DF91CF911F910F91FF904C
:1011B000EF90DF90CF90BF90AF900C947C0380E4D1
:1011C0009CE9F701918380838FEF8883DF91CF9132
:1011D0001F910F91FF90EF90DF90CF90BF90AF9055
:1011E0000895CF93DF93EC016130D1F038F0623095
:1011F000E9F0633049F1DF91CF91089561E08B818F
:101200000E947C0360E08C810E947C0361E08D8100
:101210000E947C0360E08E81DF91CF910C947C036F
:1012200060E08B810E947C0361E0EDCF60E08B8108
:101230000E947C0361E08C810E947C0360E08D81D0
:101240000E947C0361E0E7CF61E08B810E947C0318
:1012500060E0F1CFCF93DF93EC01613091F038F093
:10126000623089F06330A9F0DF91CF91089560E09A
:101270008B810E947C0361E08C81DF91CF910C9483
:101280007C0361E0F5CF61E08B810E947C0360E02C
:10129000F3CF60E0F9CFCF93DF93EC0120E030E0B3
:1012A000A9016F85788989899A890E94361D181647
:1012B0002CF4EBA1FCA1DF91CF911994EDA1FEA13B
:1012C000FACFDC0112962C911297213061F028F0B0
:1012D000223079F0243099F00895ED91FC9102804C
:1012E000F381E02D1994ED91FC910480F581E02DBE
:1012F0001994ED91FC910680F781E02DF9CFED91E5
:10130000FC910084F185E02DF3CF61E086E00E943E
:101310007C0310926403109265031092660310928E
:1013200067038AE00E945303019731F464E873E095
:1013300083E00E942B04F5CF83E00E94AA03109261
:101340000F051092100510921105109212050895C4
:1013500060E085E00E947C031092690310926A03AA
:1013600010926B0310926C0389E00E945303019763
:1013700031F460E273E082E00E942B04F5CF82E05A
:101380000E94AA0310923605109237051092380574
:1013900010923905089587E993E00C949B021F93FE
:1013A000CF93DF93EC0111E020E030E0A9016F85DD
:1013B000788989899A890E94361D18160CF010E0E8
:1013C000612F8C810E947C0361E08B810E947C03F1
:1013D00060E08B81DF91CF911F910C947C03CF93C0
:1013E000DF93EC0188819981009711F00E94461EDD
:1013F000198218821D821C821B821A82DF91CF9172
:101400000895FC0180819181009711F00C94461E93
:101410000895FC0180819181009711F00C94301A9D
:1014200060E070E0CB0108950E94090A6230710506
:1014300099F15CF461157105A9F06130710509F14C
:10144000109254031092530322C06330710599F136
:1014500064307105A9F78FEF90E090935403809367
:10146000530320C08FEF90E0909354038093530375
:10147000909356038093550390935803809357039A
:1014800008958FEF90E0909354038093530310924C
:101490005603109255030AC010925403109253033E
:1014A0008FEF90E09093560380935503109258036A
:1014B0001092570308951092540310925303109200
:1014C0005603109255038FEF90E0D6CFCF93DF9362
:1014D000DC011496ED91FC916E177F0728F54115FC
:1014E000510511F19F01261B370B4217530708F4D2
:1014F0009A01DB01EC0188819981E21BF30BFD83EA
:10150000EC83AF01461B570B260F371FBC01620F40
:10151000731F8A0F9B1F0E94C91FE881F9818C816C
:101520009D81E80FF91F1082DF91CF910895CF932D
:10153000DF93DC0114962D913C911597232B79F0C4
:10154000FB01CD91DC9160817181CE010E94D81F99
:10155000009729F08C1B9D0BDF91CF9108958FEFA1
:101560009FEFFACFFC0124813581232B39F421E050
:10157000FB018081882349F020E007C080819181B0
:101580000E94B91F21E0892BB9F7822F08950F938C
:101590001F93CF93DF93EC0188819981009759F0D5
:1015A0002A813B812617370730F081E0DF91CF9108
:1015B0001F910F9108958B016F5F7F4F0E94CF1E87
:1015C000009759F0998388831B830A832C813D817E
:1015D000232B59F7FC011082E8CF80E0E7CFEF9290
:1015E000FF920F931F93CF93DF936115710541F421
:1015F00080E0DF91CF911F910F91FF90EF900895C0
:1016000041155105B1F07B01EC010C811D81040FE6
:10161000151FB8010E94C70A882351F32881398118
:101620008C819D81B701820F931F0E94C21F1D8371
:101630000C8381E0DECFCF93DF93EC0142E050E0FA
:1016400061E772E00E94EF0A811103C0CE010E949F
:10165000EF09CE01DF91CF910895EF92FF920F93A2
:101660001F93CF93DF93EC017B018A01BA010E94A3
:10167000C70A81110BC0CE010E94EF09CE01DF9194
:10168000CF911F910F91FF90EF9008951D830C83D0
:10169000B701888199810E94C21FF0CFFB010190A0
:1016A0000020E9F73197AF01461B570B0C942D0B27
:1016B0000F931F93CF93DF93CDB7DEB762970FB62B
:1016C000F894DEBF0FBECDBF8C01CB01F8011182B3
:1016D000108213821282158214824AE0BE016F5F6B
:1016E0007F4F0E94571ABE016F5F7F4FC8010E9453
:1016F0004E0B62960FB6F894DEBF0FBECDBFDF91E2
:10170000CF911F910F910895FB01DC0111961C925E
:101710001E9213961C921E92129715961C921E9260
:1017200014978617970749F06081718161157105DB
:1017300021F0448155810C942D0B0895FC011182F8
:1017400010821382128215821482FB010190002004
:10175000E9F73197AF01461B570B0C942D0BAF9255
:10176000BF92CF92DF92EF92FF920F931F93CF938E
:10177000DF938C017B01DB011496CD91DC91FE019E
:1017800031972FEF3FEFD12CC12C90E080E050E05B
:1017900040E0E817F90734F14130510531F1BC015F
:1017A0006F5F7F4F5B018C179D0760F4D7016D91D0
:1017B0007C916115710531F0680F791FDB016C9127
:1017C0006B3319F0E817F90759F46901BFEFCB1A29
:1017D000DB0A9501E817F90709F09C0141E050E0A8
:1017E000C501D7CF41305105D1F559012C153D0523
:1017F00010F05601690163E772E0C8010E949E0B78
:10180000F701C481D581AC16BD06D0F4CC16DD0637
:1018100008F4E601D7016D917C91FB01EC0FFD1FEF
:10182000D08010826A0D7B1DC80161157105A1F081
:101830000E944E0BF70180819181C80FD91FD88279
:10184000C801DF91CF911F910F91FF90EF90DF9032
:10185000CF90BF90AF9008950E94EF09EBCF63E760
:1018600072E0C8010E949E0BEBCF9F92AF92BF9295
:10187000CF92DF92EF92FF920F931F93CF93DF935C
:1018800000D000D01F921F92CDB7DEB77C0103E0DD
:1018900010E082E792E0C82E880FDD0801501109A0
:1018A000E114F10469F0F70101900020E9F73197A4
:1018B000AF014E195F09B70187E993E00E947801F3
:1018C00069E170E080E090E00E94010786E0A82EC8
:1018D000B12C81E0A81AB108D9F187E993E00E9400
:1018E000160218161906ACF70E94C80197FF982E29
:1018F00083E29812EECF61E070E080E090E00E9419
:10190000010763E772E0CE0101960E949E0B0E94E0
:10191000C80197FD0FC08C159D0561F08F83188657
:1019200041E050E0BE01695F7F4FCE0101960E9409
:10193000EF0AEDCF61EF72E0CE0101960E94B20A8C
:10194000882301F1CE0101960E94010A10E000E017
:1019500087E993E00E949B020115110509F09ECFD3
:1019600028960FB6F894DEBF0FBECDBFDF91CF91A2
:101970001F910F91FF90EF90DF90CF90BF90AF90AD
:101980009F900895CE0101960E94010AA2CFCF93A5
:10199000DF93C0914603C0934703D0914503D09392
:1019A000460384E30E94530380934503D81312C077
:1019B000CD1310C080914803C81761F0C09348034D
:1019C0008EE292E0CC2311F088E392E0DF91CF9198
:1019D0000C94350CDF91CF9108950E94C70C60E004
:1019E0008FE10E947C0310926E0310926F0310929D
:1019F00070031092710380914803813041F40E947A
:101A0000C70C64E873E08DE10E942B04F4CF8DE1F4
:101A10000E94AA0310925D0510925E0510925F0568
:101A2000109260050895CF93DF93C0914A03C0934D
:101A30004B03D0914903D0934A0383E30E9453039D
:101A400080934903D81312C0CD1310C080915A035C
:101A5000C81761F0C0935A0382E492E0CC2311F0DE
:101A60008CE492E0DF91CF910C94350CDF91CF9113
:101A70000895CF93DF93C0914D03C0934E03D0914F
:101A80004C03D0934D0382E30E94530380934C0395
:101A9000D81312C0CD1310C080915903C81761F03C
:101AA000C093590386E592E0CC2311F080E692E0E2
:101AB000DF91CF910C94350CDF91CF910895CF93A6
:101AC000DF93C0915003C0935103D0914F03D09343
:101AD000500385E30E94530380934F03D81312C031
:101AE000CD1310C080915203C81761F0C093520308
:101AF0008AE692E0CC2311F084E792E0DF91CF9167
:101B00000C94350CDF91CF910895CF938EE792E03E
:101B10000E94350C0E945F0D61E089E10E947C0308
:101B2000C0915203C13041F40E945F0D64E873E03C
:101B30008BE10E942B04F4CF8BE10E94AA03C11118
:101B400005C08AE892E0CF910C94350CCF910895AE
:101B50004F925F926F927F928F929F92AF92BF92BD
:101B6000CF92DF92EF92FF92CF93DF93EC016B85E0
:101B70007C858D859E85CF80D884E984FA846C1914
:101B80007D098E099F09C12CD12C760109F445C02D
:101B90004F88588C698C7A8C161617061806190609
:101BA0000CF04CC00E94A81A9B01AC010E94291C99
:101BB000A30192010E94071B0E94411D6B017C0141
:101BC0008F849888A988BA88A7019601C501B401B5
:101BD0000E94A11A87FF66C020E030E0A901C5017C
:101BE000B4010E94A11A811143C0A3019201C30153
:101BF000B2010E94291C0E94411D4B015C01CB884F
:101C0000DC88ED88FE889B01AC01C701B6010E940B
:101C1000A11A87FD02C064017501C701B601DF91F9
:101C2000CF91FF90EF90DF90CF90BF90AF909F90BB
:101C30008F907F906F905F904F90089590958095D2
:101C4000709561957F4F8F4F9F4F0E94A81A9B01FF
:101C5000AC010E94291CA30192010E94071B0E9453
:101C6000411D6B017C01F7FAF094F7F8F094A8CFCE
:101C7000A5019401C301B2010E94951C6B017C0176
:101C800020E030E0A9010E94361D181624F0F7FA72
:101C9000F094F7F8F094A7019601C501B4010E94F1
:101CA000291CABCFA7019601C501B4010E94361DC6
:101CB00018160CF0B2CF20E030E0A901C501B40144
:101CC0000E94A11A811122C0A3019201C301B20195
:101CD0000E94291C0E94411D4B015C01B7FAB0947F
:101CE000B7F8B094CB88DC88ED88FE88F7FAF094DA
:101CF000F7F8F094A5019401C701B6010E94361DC2
:101D000018160CF48ACF7501640187CFA5019401E0
:101D1000C301B2010E94951C6B017C0120E030E000
:101D2000A9010E94361D181624F0F7FAF094F7F86E
:101D3000F094A7019601C501B4010E94281C4B0133
:101D40005C01D0CFCF92DF92EF92FF92CF93DF93DF
:101D5000EC010E94A80D9B01AC012F87388B498BA9
:101D60005A8B60E070E08AE794E40E94951C6B0156
:101D70007C0120E030E0A9010E94361D18167CF499
:101D8000C701B6010E94071D6B8F7C8F8D8F9E8FC0
:101D9000DF91CF91FF90EF90DF90CF900895C70132
:101DA000B6019058EFCF4F925F926F927F928F92D1
:101DB0009F92AF92BF92CF92DF92EF92FF92CF931A
:101DC000DF93EC014B855C856D857E858F819885E1
:101DD000A985BA85481759076A077B0709F453C0D4
:101DE0008FB7F8948090730390907403A09075035C
:101DF000B09076038FBF8F8D98A1A9A1BAA14B8D0A
:101E00005C8D6D8D7E8D840F951FA61FB71F881565
:101E10009905AA05BB0530F54F84588869887A88EA
:101E2000CF80D884E984FA8420E030E0A901C3019E
:101E3000B2010E94361D1816BCF48FEFC81AD80ADA
:101E4000E80AF80ACF82D886E986FA866F8163703D
:101E5000CE010E9461098F8E98A2A9A2BAA2CE01DA
:101E60000E94A20E81E010C020E030E0A901C30171
:101E7000B2010E94A11A87FFE9CF81E0C81AD108F8
:101E8000E108F108DFCF80E0DF91CF91FF90EF9084
:101E9000DF90CF90BF90AF909F908F907F906F908A
:101EA0005F904F90089586E595E00E94D30E8FE2F3
:101EB00095E00E94D30E88E095E00E94D30E81EE5B
:101EC00094E00C94D30E60E087E00E947C031092B3
:101ED0005F031092600310926103109262038BE023
:101EE0000E945303019731F464E873E084E00E9498
:101EF0002B04F5CF84E00E94AA031092E80410920C
:101F0000E9041092EA041092EB048CE390E0A0E064
:101F1000B0E080935F0390936003A0936103B0935C
:101F200062038093EC049093ED04A093EE04B093CD
:101F3000EF0481EE94E00E94A20E8091E80490915B
:101F4000E904A091EA04B091EB044E97A105B10514
:101F50002CF481EE94E00E94D30EEFCF08950E94FE
:101F6000850D64E670E080E090E00E9401070E9429
:101F7000ED0C64E670E080E090E00E9401070E94B2
:101F8000850964E670E080E090E00E9401070E940D
:101F9000A80964E670E080E090E00E9401070E94DA
:101FA000630F64E670E080E090E00E94010760E566
:101FB00070E08EED94E00E9433076AE570E08BEDEF
:101FC00094E00E9433070C94530F1F920F920FB6A8
:101FD0000F9211240BB60F922F933F934F935F9361
:101FE0006F937F938F939F93AF93BF93EF93FF93E1
:101FF00080918B0390918C03A0918D03B0918E03FF
:10200000892B8A2B8B2BE1F190917A03E0917B0352
:10201000F0917C0380818927808380918B0390914C
:102020008C03A0918D03B0918E03181619061A0621
:102030001B069CF480918B0390918C03A0918D03DF
:10204000B0918E030197A109B10980938B039093FE
:102050008C03A0938D03B0938E03FF91EF91BF91FA
:10206000AF919F918F917F916F915F914F913F9130
:102070002F910F900BBE0F900FBE0F901F901895D1
:10208000809105020E94AA03E8CF1F920F920FB61B
:102090000F9211240BB60F922F933F934F935F93A0
:1020A0006F937F938F939F93AF93BF93EF93FF9320
:1020B00087E993E00E942C02FF91EF91BF91AF91CD
:1020C0009F918F917F916F915F914F913F912F9150
:1020D0000F900BBE0F900FBE0F901F9018951F9280
:1020E0000F920FB60F9211240BB60F922F938F936E
:1020F0009F93EF93FF93E091A703F091A803808152
:10210000E091AD03F091AE0382FD1DC090818091FE
:10211000B0038F5F8F732091B103821741F0E0917C
:10212000B003F0E0E956FC4F958F8093B003FF9128
:10213000EF919F918F912F910F900BBE0F900FBE3B
:102140000F901F9018958081F2CF1F920F920FB6BB
:102150000F9211242F933F938F939F93AF93BF932D
:102160008091730390917403A0917503B0917603ED
:102170003091400323E0230F2D3758F50196A11D20
:10218000B11D209340038093730390937403A09335
:102190007503B09376038091410390914203A0911F
:1021A0004303B09144030196A11DB11D80934103E7
:1021B00090934203A0934303B0934403BF91AF9124
:1021C0009F918F913F912F910F900FBE0F901F9075
:1021D000189526E8230F0296A11DB11DD2CF1F929C
:1021E0000F920FB60F9211240F900FBE0F901F90F9
:1021F00018951F920F920FB60F9211240BB60F92E3
:102200002F933F934F935F936F937F938F939F93FE
:10221000AF93BF93EF93FF9348E251E064E271E024
:1022200090E080E00E943708FF91EF91BF91AF915D
:102230009F918F917F916F915F914F913F912F91DE
:102240000F900BBE0F900FBE0F901F9018951F920E
:102250000F920FB60F9211240BB60F922F933F934C
:102260004F935F936F937F938F939F93AF93BF939E
:10227000EF93FF9348EA50E064EA70E083E090E077
:102280000E943708FF91EF91BF91AF919F918F917D
:102290007F916F915F914F913F912F910F900BBE66
:1022A0000F900FBE0F901F9018951F920F920FB6B0
:1022B0000F9211240BB60F922F933F934F935F937E
:1022C0006F937F938F939F93AF93BF93EF93FF93FE
:1022D00048E950E064E970E082E090E00E9437084D
:1022E000FF91EF91BF91AF919F918F917F916F91EE
:1022F0005F914F913F912F910F900BBE0F900FBEAA
:102300000F901F9018951F920F920FB60F921124E5
:102310000BB60F922F933F934F935F936F937F93DF
:102320008F939F93AF93BF93EF93FF9348E850E051
:1023300064E870E081E090E00E943708FF91EF913F
:10234000BF91AF919F918F917F916F915F914F91CD
:102350003F912F910F900BBE0F900FBE0F901F90CB
:1023600018950F931F93CF93DF93EC01862F20E1F5
:1023700032E03983288391E09A831F821886198678
:102380001A861B861C861D861E861F86188A198A39
:102390001A8A00E010E020E83FE30B8B1C8B2D8BAA
:1023A0003E8B0F8B188F298F3A8F1B8E1C8E1D8EA4
:1023B0001E8E1F8E18A219A21AA26B834C8394E062
:1023C0009D8395E09E8361E00E94EF0361E08C8134
:1023D0000E94EF038A81843061F461E08D810E9464
:1023E000EF0361E08E81DF91CF911F910F910C94EB
:1023F000EF03DF91CF911F910F91089510929A03EF
:102400001092990388EE93E0A0E0B0E080939B03E4
:1024100090939C03A0939D03B0939E0380E292E06F
:10242000909398038093970385EC90E09093A40396
:102430008093A30384EC90E09093A6038093A5037C
:1024400080EC90E09093A8038093A70381EC90E048
:102450009093AA038093A90382EC90E09093AC033D
:102460008093AB0386EC90E09093AE038093AD0332
:102470001092B0031092B1031092B2031092B30302
:102480004FE16DE186E595E00E94B11145E062E023
:102490008FE295E00E94B11146E063E088E095E0AC
:1024A0000E94B11147E064E081EE94E00E94B11116
:1024B0008091C404803308F081C091E0980F90931C
:1024C000C4048093DE0490E0FC01EE0FFF1FE80FD0
:1024D000F91FEC5CFB4F88EB9BE09283818380913A
:1024E000C404803308F06EC091E0980F9093C40448
:1024F0008093DB0490E0FC01EE0FFF1FE80FF91F53
:10250000EC5CFB4F88EB9BE0928381831092C604C6
:102510001092CD041092D4041092D5041092D604D7
:102520001092D70481E08093D3048093D00410925A
:10253000D10492E09093D2048093C50483E090E0AC
:102540009093CA048093C9040E94AA1D9093CF045B
:102550008093CE04009709F439C023E0FC01119266
:102560002A95E9F781E090E09093C8048093C7042E
:102570008BE290E09093CC048093CB048091C604CE
:10258000882341F061E08BE20E94EF0360E08BE280
:102590000E947C03EAE6F2E0E491F0E0EE0FFF1F18
:1025A000EB5DFD4F859194919093D9048093D8046D
:1025B000EAE0F2E0E491E093DA0408958FEF80938B
:1025C000DE048DCF8FEF8093DB04A0CF1092CA047E
:1025D0001092C9041092C8041092C704C9CFCF93B7
:1025E000DF93CDB7DEB7E0970FB6F894DEBF0FBE2E
:1025F000CDBF789484B5826084BD84B5816084BD8C
:1026000085B5826085BD85B5816085BD80916E0090
:10261000816080936E0010928100809181008260C1
:1026200080938100809181008160809381008091FE
:1026300080008160809380008091B10084608093ED
:10264000B1008091B00081608093B00080919100D2
:1026500082608093910080919100816080939100CD
:10266000809190008160809390008091A1008260B1
:102670008093A1008091A10081608093A10080914E
:10268000A00081608093A0008091210182608093EE
:10269000210180912101816080932101809120019D
:1026A00081608093200180917A00846080937A0019
:1026B00080917A00826080937A0080917A008160B4
:1026C00080937A0080917A00806880937A001092DB
:1026D000C10061E088E00E94EF0361E087E10E94B1
:1026E000EF0361E089E10E94EF0361E08BE10E946A
:1026F000EF0361E08BE20E94EF0360E088E00E945C
:102700007C0361E087E10E947C0362E089E00E9433
:10271000EF0362E08AE00E94EF0362E08BE00E9438
:10272000EF0362E08CE00E94EF0362E085E30E9429
:10273000EF0362E082E30E94EF0362E083E30E9422
:10274000EF0362E084E30E94EF0361E08FE10E9407
:10275000EF0361E085E00E94EF0361E086E00E9404
:10276000EF0361E087E00E94EF0360E08FE10E94E9
:102770007C0360E085E00E947C0361E086E00E94CB
:102780007C0360E087E00E947C03412C64E2562ECB
:1027900064EF662E68E4762E4092690550926A05D1
:1027A00060926B0570926C0586E595E00E94A20E22
:1027B000812C70E5972E73ECA72E77E4B72E8092CC
:1027C0006D0590926E05A0926F05B092700586E53A
:1027D00095E00E94A20E40924205509243056092FD
:1027E0004405709245058FE295E00E94A20E80920A
:1027F000460590924705A0924805B09249058FE2A0
:1028000095E00E94A20E40921B0550921C0560921A
:102810001D0570921E0588E095E00E94A20E809230
:102820001F0590922005A0922105B092220588E014
:1028300095E00E94A20E4092F4045092F50460923A
:10284000F6047092F70481EE94E00E94A20E80924A
:10285000F8049092F904A092FA04B092FB0481EE7D
:1028600094E00E94A20E6EE270E08EED94E00E9471
:10287000AF076FE270E08BED94E00E94AF0781E05C
:1028800080935203809351038093500380934F03AE
:102890008093590380934E0380934D0380934C03A0
:1028A00080935A0380934B0380934A038093490398
:1028B00080934803809347038093460380934503A6
:1028C00080935B0380935D0380935E0380935C033E
:1028D000E091A703F091A80392E09083E091A30315
:1028E000F091A4031082E091A503F091A60390E17A
:1028F00090831092AF03E091AB03F091AC0396E0AC
:102900009083E091A903F091AA0390819061908354
:10291000E091A903F091AA03908198609083E091DF
:10292000A903F091AA03908190689083E091A90394
:10293000F091AA0390819F7D90834AE050E060E08F
:1029400070E040939B0350939C0360939D037093AE
:102950009E03809304028091CB049091CC0497FD58
:1029600008C061E00E94EF0360E08091CB040E9408
:102970007C0381E08093C6048091CE049091CF04C3
:10298000892B11F00E942C0667E972E0CE010196B6
:102990000E949E0BCE0101960E94140ACE01019660
:1029A0000E94010A02E712E0002E000C110BEE2437
:1029B000E3948091C7049091C804892B09F44EC018
:1029C000209153038091550390E0B0E0A0E0BA2F2E
:1029D000A92F982F8827A22B20915703822B2D01F6
:1029E00066247724892E9A2EAB2EBB24482D382FAF
:1029F0002091CD04222391F0622F70E0649DA0010C
:102A0000659D500D749D500D1124452E289D40014B
:102A10001124492D289FC0011124392FE091D3049E
:102A20008091CE049091CF042091D004E21721F040
:102A3000E80FF92FF11D1082E091D004E80FF92F73
:102A4000F11D4082E091D104E80FF92FF11D408380
:102A50002091D204820F911DFC0130838091CE041D
:102A60009091CF04892B11F00E942C0680910402D2
:102A7000882391F0109204020E94AF0F69E972E07E
:102A8000CE0101960E949E0BCE0101960E94140A6F
:102A9000CE0101960E94010A87E993E00E94160286
:102AA000181619060CF0C8C20E94C80197FFF82E2C
:102AB000F3E2FF12C1C261E070E080E090E00E94AA
:102AC000010763E772E0CE018B960E949E0B0E9485
:102AD000C80197FD0FC08017910761F089831A82A2
:102AE00041E050E0BE016F5F7F4FCE018B960E94A8
:102AF000EF0AEDCFBE01655D7F4FCE0185960E9446
:102B0000840BBE016B5D7F4FCE0101960E94840B4A
:102B1000BE016F5F7F4FCE014F960E94AF0BCE017B
:102B200001960E94010A0E94CB094BA15CA14F5F54
:102B30005F4F70E060E0CE0185960E94660A6BE907
:102B400072E0CE0101960E949E0BBE016F5F7F4F27
:102B5000CE014F960E94970A6C01CE0101960E9409
:102B6000010AD7FCA3C10E94CB09BE016B5D7F4F58
:102B7000CE0101960E94840BBE016F5F7F4FCE0194
:102B80000D960E94AF0BCE0101960E94010A498961
:102B90005A894F5F5F4F70E060E0CE0185960E94DA
:102BA000660ABE016B5D7F4FCE0101960E94840BC9
:102BB000BE016F5F7F4FCE0107960E94AF0BCE0123
:102BC00001960E94010A4B855C854F5F5F4F70E064
:102BD00060E0CE0185960E94660A69A57AA56150DB
:102BE000710941E050E0CE0185960E94660ABE015F
:102BF0006B5D7F4FCE0101960E94840B67E972E006
:102C0000CE010D960E94B20A6EE972E0882309F4A3
:102C10005BC0CE0107960E94B20A882369F00E9429
:102C2000850DCE0101960E94010ACE0107960E94F1
:102C3000010ACE010D96D8C160EA72E0CE01079676
:102C40000E94B20A882309F18EE792E00E94350CB7
:102C50000E94390D61E089E10E947C03D090590304
:102C600021E0D21208C00E94390D64E873E08BE1C4
:102C70000E942B04F3CF8BE10E94AA03D110D1CF85
:102C80008AE892E00E94350CCCCF69E972E0CE016F
:102C900007960E94B20A882321F28EE792E00E94F2
:102CA000350C0E94130D60E089E10E947C03D090F6
:102CB0005A0331E0D312DFCF0E94130D64E873E0B2
:102CC0008BE10E942B04F3CFCE010D960E94B20A35
:102CD0008823A1F1CE0101960E94090A60936E0338
:102CE00070936F03809370039093710380905D05E0
:102CF00090905E05A0905F05B0906005681579051D
:102D00008A059B0531F082EA92E00E94350CE09240
:102D1000720380916E0390916F03A0917003B09144
:102D200071038093610590936205A0936305B0934E
:102D3000640586E595E00E94A20E73CF60EA72E01A
:102D4000CE010D960E94B20A882391F1CE01019620
:102D50000E94090A6093690370936A0380936B036E
:102D600090936C038090360590903705A0903805BD
:102D7000B0903905681579058A059B0531F08EEA12
:102D800092E00E94350CE0926D038091690390916E
:102D90006A03A0916B03B0916C0380933A05909302
:102DA0003B05A0933C05B0933D058FE295E0C3CF72
:102DB00069E972E0CE010D960E94B20A8823D9F12A
:102DC000CE0101960E94090A9B01AC018827992730
:102DD000DC01821B930BA40BB50B809364039093CF
:102DE0006503A0936603B093670340910F0550916C
:102DF0001005609111057091120584179507A607BB
:102E0000B70731F08AEB92E00E94350CE09268033C
:102E10008091640390916503A0916603B09167036C
:102E20008093130590931405A0931505B093160590
:102E300088E095E080CF66EC72E0CE010D960E94AE
:102E4000B20A882309F4EDCECE0101960E94090A48
:102E500060935F03709360038093610390936203B8
:102E60008090E8049090E904A090EA04B090EB040C
:102E7000681579058A059B0531F088EC92E00E947F
:102E8000350CE092630380915F0390916003A09101
:102E90006103B09162038093EC049093ED04A093DE
:102EA000EE04B093EF0481EE94E045CF64ED72E060
:102EB000CE0101960E949E0BBE016F5F7F4FCE0137
:102EC0004F960E94970A6C01CE0101960E94010A5A
:102ED000D7FC85C10E94CB09BE016B5D7F4FCE013F
:102EE00001960E94840BBE016F5F7F4FCE01499611
:102EF0000E94AF0BCE0101960E94010A4D8D5E8D9E
:102F00004F5F5F4F70E060E0CE0185960E94660AD9
:102F100069A57AA56150710941E050E0CE0185961E
:102F20000E94660ABE016B5D7F4FCE0143960E94F0
:102F3000840B0E94CB0967E972E0CE0101960E94E2
:102F40009E0BBE016F5F7F4FCE0149960E94970A8C
:102F50006C01CE0101960E94010AD7FC17C1CE0177
:102F600043960E94090A4B01709303026093020288
:102F70008EED94E00E943307B401CE0101960E94C9
:102F8000580B67ED72E0CE0107960E949E0B4D81B3
:102F90005E8169817A81CE0107960E94EF0A8111D4
:102FA00004C0CE0107960E94EF09CE0107960E9449
:102FB0001B0BBC01CE010D960E94840BCE0107961F
:102FC0000E94010ACE0101960E94010A8D859E850C
:102FD0000E94350CCE010D960E94010ACE01439647
:102FE0000E94010ACE0149960E94010AD12CC12CEF
:102FF00063E772E0CE0185960E944E0BCE014F969C
:103000000E94010ACE0185960E94010A63E772E0E0
:10301000CE018B960E944E0B44E050E060EF72E0D0
:10302000CD2811F065EF72E087E993E00E94780106
:10303000CE018B960E94010A87E993E00E949B02D1
:10304000D0905E03D0925D03C0905C03C0925E039B
:103050008CE00E94530380935C03C8120EC0DC1006
:103060000CC080915B03D81641F0D0925B03D11065
:1030700004C08AEF92E00E94350C0E945F0D0E940E
:10308000390D0E94130D0E94C70C80917203882392
:10309000D9F040916E0350916F036091700370916D
:1030A000710380915D0590915E05A0915F05B091DF
:1030B0006005481759076A077B0731F410927203BD
:1030C00085E093E00E94350C80916D038823D9F050
:1030D0004091690350916A0360916B0370916C0396
:1030E0008091360590913705A0913805B09139054A
:1030F000481759076A077B0731F410926D0382E184
:1031000093E00E94350C809168038823D9F04091A8
:103110006403509165036091660370916703809129
:103120000F0590911005A0911105B0911205481757
:1031300059076A077B0731F4109268038FE193E027
:103140000E94350C809163038823D9F040915F037E
:103150005091600360916103709162038091E80473
:103160009091E904A091EA04B091EB044817590743
:103170006A077B0731F4109263038CE293E00E94AC
:10318000350C0E94530F0E94BB0213CC6EE972E013
:10319000CE0101960E949E0BBE016F5F7F4FCE0154
:1031A00049960E94970A6C01CE0101960E94010A7D
:1031B000D7FC14CFCE0143960E94090A4B017093AD
:1031C0000102609300028BED94E00E943307B4018A
:1031D000CE0101960E94580B6EED72E0D4CE65EEE2
:1031E00072E0CE0101960E949E0BBE016F5F7F4F81
:1031F000CE014F960E94970A6C01CE0101960E9463
:10320000010AD7FC51C00E94CB09BE016B5D7F4F04
:10321000CE0101960E94840BBE016F5F7F4FCE01ED
:103220000D960E94AF0BCE0101960E94010A4989BA
:103230005A894F5F5F4F70E060E0CE0185960E9433
:10324000660A69A57AA56150710941E050E0CE0196
:1032500085960E94660ABE016B5D7F4FCE01079680
:103260000E94840B0E94CB0967E972E0CE010196AF
:103270000E949E0BBE016F5F7F4FCE010D960E9494
:10328000970A6C01CE0101960E94010AD7FCCDCCB1
:10329000BE01695F7F4FCE0101960E94840BCE0173
:1032A00001960E94140ABDCC69EE72E0CE0101962F
:1032B0000E949E0BBE016F5F7F4FCE014F960E9412
:1032C000970A6C01CE0101960E94010AD7FCB4C096
:1032D000BE016B5D7F4FCE0101960E94840BBE0143
:1032E0006F5F7F4FCE0107960E94AF0BCE01019614
:1032F0000E94010A4B855C854F5F5F4F70E060E084
:10330000CE0185960E94660A0E94CB0969A57AA51E
:103310006150710941E050E0CE0185960E94660A35
:1033200067E972E0CE0101960E949E0BBE016F5FBD
:103330007F4FCE0107960E94970A6C01CE0101963D
:103340000E94010AD7FC05C00E94AF0FCE0107966C
:103350004BCE6EE972E0CE0101960E949E0BBE013B
:103360006F5F7F4FCE0107960E94970A6C01CE01D6
:1033700001960E94010AD7FC03C00E94850DE6CF8A
:1033800060EA72E0CE0101960E949E0BBE016F5F63
:103390007F4FCE0107960E94970A6C01CE010196DD
:1033A0000E94010AD7FC03C00E94ED0CCFCF69E94F
:1033B00072E0CE0101960E949E0BBE016F5F7F4FAF
:1033C000CE0107960E94970A6C01CE0101960E94D9
:1033D000010AD7FC03C00E94A809B8CF66EC72E0CE
:1033E000CE0101960E949E0BBE016F5F7F4FCE0102
:1033F00007960E94970A6C01CE0101960E94010A6D
:10340000D7FC03C00E948509A1CF6EEE72E0CE0109
:1034100001960E949E0BBE016F5F7F4FCE01079603
:103420000E94970A6C01CE0101960E94010AD7FC06
:103430008DCF0E94630F8ACFCC24CA94DC2CD8CDC8
:103440008091CE049091CF040E94461E8091CB04BF
:103450009091CC0497FD03C060E00C94EF030895B5
:103460001F93FC0199278827BC01E8941191103221
:10347000E9F3193010F01E30C8F31B3251F01D3241
:1034800049F4689406C00E94621A610F711D811D83
:10349000911D119110531A30B0F33EF49095809520
:1034A000709561957F4F8F4F9F4F1F910895BB2758
:1034B0004A3031F4992322F4BDE2909581959F4FD3
:1034C0000C94781A592F482F372F262F660F771F05
:1034D000881F991F660F771F881F991F620F731F20
:1034E000841F951F660F771F881F991F0895BB279C
:1034F000FB015527AA27880F991FAA1FA41710F0B0
:10350000A41B83955051B9F7A05DAA3308F0A95DBB
:10351000A193009779F7B111B1931192CB010C945B
:10352000911ADC01FC01672F71917723E1F7329743
:1035300004C07C916D9370836291AE17BF07C8F38E
:1035400008950E94E31A08F481E00895E89409C000
:1035500097FB3EF490958095709561957F4F8F4FC6
:103560009F4F9923A9F0F92F96E9BB279395F695DC
:10357000879577956795B795F111F8CFFAF4BB0F5A
:1035800011F460FF1BC06F5F7F4F8F4F9F4F16C0BE
:10359000882311F096E911C0772321F09EE8872F48
:1035A000762F05C0662371F096E8862F70E060E004
:1035B0002AF09A95660F771F881FDAF7880F96957D
:1035C000879597F90895990F0008550FAA0BE0E821
:1035D000FEEF16161706E807F907C0F012161306D5
:1035E000E407F50798F0621B730B840B950B39F415
:1035F0000A2661F0232B242B252B21F408950A267B
:1036000009F4A140A6958FEF811D811D08950E94A8
:103610001A1B0C948B1B0E947D1B38F00E94841B8C
:1036200020F0952311F00C94741B0C947A1B112438
:103630000C94BF1B0E949C1B70F3959FC1F3950FC8
:1036400050E0551F629FF001729FBB27F00DB11D26
:10365000639FAA27F00DB11DAA1F649F6627B00DB6
:10366000A11D661F829F2227B00DA11D621F739F9F
:10367000B00DA11D621F839FA00D611D221F749FAD
:103680003327A00D611D231F849F600D211D822FF4
:10369000762F6A2F11249F5750409AF0F1F088231B
:1036A0004AF0EE0FFF1FBB1F661F771F881F915048
:1036B0005040A9F79E3F510580F00C94741B0C9468
:1036C000BF1B5F3FE4F3983ED4F3869577956795EB
:1036D000B795F795E7959F5FC1F7FE2B880F911D72
:1036E0009695879597F9089597F99F6780E870E018
:1036F00060E008959FEF80EC089500240A94161668
:10370000170618060906089500240A9412161306CF
:10371000140605060895092E0394000C11F488235D
:1037200052F0BB0F40F4BF2B11F460FF04C06F5F79
:103730007F4F8F4F9F4F089557FD9058440F551F4F
:1037400059F05F3F71F04795880F97FB991F61F023
:103750009F3F79F087950895121613061406551F9A
:10376000F2CF4695F1DF08C0161617061806991F06
:10377000F1CF86957105610508940895E894BB27FB
:1037800066277727CB0197F90895052E97FB1EF43E
:1037900000940E94DC1B57FD07D00E94F71B07FC1A
:1037A00003D04EF40C94DC1B509540953095219538
:1037B0003F4F4F4F5F4F089590958095709561955D
:1037C0007F4F8F4F9F4F08950E94191CA59F900D0A
:1037D000B49F900DA49F800D911D11240895B7FFF3
:1037E0000C94E41B0E94E41B821B930B0895A1E23E
:1037F0001A2EAA1BBB1BFD010DC0AA1FBB1FEE1F6B
:10380000FF1FA217B307E407F50720F0A21BB30BB5
:10381000E40BF50B661F771F881F991F1A9469F731
:1038200060957095809590959B01AC01BD01CF018D
:103830000895A29FB001B39FC001A39F700D811D89
:103840001124911DB29F700D811D1124911D0895A9
:103850005058BB27AA270E94401C0C948B1B0E9427
:103860007D1B38F00E94841B20F039F49F3F19F42F
:1038700026F40C947A1B0EF4E095E7FB0C94741B71
:10388000E92F0E949C1B58F3BA176207730784073D
:10389000950720F079F4A6F50C94BE1B0EF4E09584
:1038A0000B2EBA2FA02D0B01B90190010C01CA01FA
:1038B000A0011124FF27591B99F0593F50F4503EA5
:1038C00068F11A16F040A22F232F342F4427585F97
:1038D000F3CF469537952795A795F0405395C9F7AF
:1038E0007EF41F16BA0B620B730B840BBAF0915067
:1038F000A1F0FF0FBB1F661F771F881FC2F70EC006
:10390000BA0F621F731F841F48F4879577956795D8
:10391000B795F7959E3F08F0B0CF9395880F08F0C4
:103920009927EE0F9795879508950E94A91C0C94EE
:103930008B1B0E94841B58F00E947D1B40F029F4D1
:103940005F3F29F00C94741B51110C94BF1B0C9415
:103950007A1B0E949C1B68F39923B1F3552391F3C2
:10396000951B550BBB27AA2762177307840738F0EE
:103970009F5F5F4F220F331F441FAA1FA9F335D04B
:103980000E2E3AF0E0E832D091505040E695001CFF
:10399000CAF72BD0FE2F29D0660F771F881FBB1FB9
:1039A000261737074807AB07B0E809F0BB0B802D97
:1039B000BF01FF2793585F4F3AF09E3F510578F0C3
:1039C0000C94741B0C94BF1B5F3FE4F3983ED4F33C
:1039D000869577956795B795F7959F5FC9F7880F97
:1039E000911D9695879597F90895E1E0660F771FE9
:1039F000881FBB1F621773078407BA0720F0621B7A
:103A0000730B840BBA0BEE1F88F7E09508950E94A4
:103A1000A41B88F09F5798F0B92F9927B751B0F0A1
:103A2000E1F0660F771F881F991F1AF0BA95C9F742
:103A300014C0B13091F00E94BE1BB1E008950C9407
:103A4000BE1B672F782F8827B85F39F0B93FCCF3BA
:103A5000869577956795B395D9F73EF490958095BF
:103A6000709561957F4F8F4F9F4F08950E94E31A85
:103A700008F48FEF089519F416F40C947A1B0C9443
:103A8000811D0E94A41BB8F39923C9F3B6F39F5775
:103A9000550B87FF0E948F1D0024A0E640EA90018D
:103AA00080585695979528F4805C660F771F881F7D
:103AB00020F026173707480730F4621B730B840B7E
:103AC000202931294A2BA6951794079420253125C2
:103AD0004A2758F7660F771F881F20F026173707E9
:103AE000480730F4620B730B840B200D311D411D10
:103AF000A09581F7B901842F9158880F96958795E5
:103B000008959F3F31F0915020F487957795679500
:103B1000B795880F911D9695879597F908959150BF
:103B20005040660F771F881FD2F70895991B79E0E0
:103B300004C0991F961708F0961B881F7A95C9F73D
:103B400080950895EE0FFF1F881F8BBF0790F69199
:103B5000E02D19940F931F93CF93DF93823091053B
:103B600010F482E090E0E0917F05F091800530E074
:103B700020E0B0E0A0E0309799F42115310509F478
:103B80004AC0281B390B24303105D8F58A819B8126
:103B90006115710589F1FB0193838283FE0111C0D8
:103BA000408151810281138148175907E0F048177D
:103BB000590799F4109761F012960C931297139687
:103BC0001C933296CF01DF91CF911F910F910895F1
:103BD00000937F0510938005F4CF2115310551F036
:103BE0004217530738F0A901DB019A01BD01DF013B
:103BF000F801C1CFEF01F9CF9093800580937F0545
:103C0000CDCFFE01E20FF31F819391932250310932
:103C100039832883D7CF20917D0530917E05232BD2
:103C200041F4209108023091090230937E052093DF
:103C30007D0520910602309107022115310541F4DE
:103C40002DB73EB740910A0250910B02241B350B51
:103C5000E0917D05F0917E05E217F307A0F42E1B9D
:103C60003F0B2817390778F0AC014E5F5F4F2417E0
:103C7000350748F04E0F5F1F50937E0540937D053A
:103C8000819391939FCFF0E0E0E09CCFCF93DF93BF
:103C90000097E9F0FC01329713821282A0917F0510
:103CA000B0918005ED0130E020E01097A1F4208173
:103CB0003181820F931F20917D0530917E05281759
:103CC000390709F061C0F0937E05E0937D05DF912F
:103CD000CF910895EA01CE17DF07E8F54A815B81AD
:103CE0009E0141155105B1F7E901FB83EA83499132
:103CF0005991C40FD51FEC17FD0761F480819181A4
:103D00000296840F951FE9019983888382819381AC
:103D10009B838A83F0E0E0E012968D919C9113974B
:103D20000097B9F52D913C911197CD010296820F24
:103D3000931F20917D0530917E052817390739F6AC
:103D4000309751F51092800510927F05B0937E0553
:103D5000A0937D05BCCFD383C28340815181840F62
:103D6000951FC817D90761F44E5F5F4F888199810D
:103D7000480F591F518340838A819B81938382839B
:103D80002115310509F0B0CFF0938005E0937F0550
:103D90009ECFFD01DC01C0CF13821282D7CF4F929C
:103DA0005F926F927F928F929F92AF92BF92CF92CB
:103DB000DF92EF92FF920F931F93CF93DF938C01CB
:103DC000009799F4CB01DF91CF911F910F91FF9054
:103DD000EF90DF90CF90BF90AF909F908F907F90AB
:103DE0006F905F904F900C94AA1DFC01E60FF71F97
:103DF0009C0122503109E217F30708F4AEC0D90143
:103E0000CD91DC911197C617D70720F1C530D105A8
:103E100078F0CE0104978617970750F0C61BD70B92
:103E20002297C193D1936D937C93CF010E94461E3C
:103E3000C801DF91CF911F910F91FF90EF90DF901C
:103E4000CF90BF90AF909F908F907F906F905F903A
:103E50004F9008955B01AC1ABD0A4C018C0E9D1E5B
:103E6000A0917F05B0918005512C412CF12CE12CC3
:103E7000109731F580917D0590917E058815990503
:103E800009F05CC04616570608F058C0809106023B
:103E900090910702009741F48DB79EB740910A02B6
:103EA00050910B02841B950BE817F90708F055C0D9
:103EB000F0937E05E0937D05F90171836083B8CFAF
:103EC0008D919C91119712966C90129713967C90FD
:103ED0001397A815B90559F56C0142E0C40ED11C21
:103EE000CA14DB0420F1AC014A195B09DA0112960D
:103EF000159780F06282738251834083D9016D935C
:103F00007C93E114F10471F0D7011396FC93EE93C6
:103F100012978ECF22968C0F9D1FF901918380837B
:103F2000F301EFCFF0938005E0937F0581CF481632
:103F3000590608F42C017D01D3019ACFCB010E94D0
:103F4000AA1D7C01009749F0AE01B8010E94B01F84
:103F5000C8010E94461E87016BCF10E000E068CFC9
:103F6000FB01DC0102C001900D9241505040D8F796
:103F70000895FB01DC018D91019080190110D9F3A6
:103F8000990B0895FB01DC0101900D920020E1F7EF
:103F90000895FB01DC014150504048F001900D9222
:103FA0000020C9F701C01D9241505040E0F708952C
:103FB000FB0151915523A9F0BF01DC014D9145173B
:103FC0004111E1F759F4CD010190002049F04D91E4
:103FD00040154111C9F3FB014111EFCF81E090E0A1
:103FE0000197089511E0C4E4D1E000E006C0802FFD
:103FF000FE010E94A21D2196011DC534D10780E05B
:084000000807A9F7F894FFCFAF
:104008005A00500001FF00008105800000000000F8
:1040180061094B09CF092A09F108A80D0000000021
:104028004E027801A5019B021602B401080223532F
:10403800533B333B303B21002353533B333B313B12
:1040480021002353533B323B303B21002353533B46
:10405800323B313B21002353533B313B303B210062
:104068002353533B313B313B21002353533B303BDC
:10407800303B21002353533B303B313B2100234D40
:10408800543B303B52554E3B2100234D543B303B73
:1040980053544F503B2100300033004D5400310041
:1040A8003200234D543B313B52554E3B2100234DAA
:1040B800543B323B52554E3B2100234D543B333B3E
:1040C80052554E3B21003400234D543B343B52554E
:1040D8004E3B21005356002353563B303B0023539D
:1040E800563B313B004C454400484F4D4500350098
:1040F800234F4B2100234B4F21002353543B535450
:104108004152542100234D543B313B53544F503BB3
:104118002100234D543B323B53544F503B21002345
:104128004D543B333B53544F503B2100234D543B9C
:0A413800343B53544F503B2100006C
:00000001FF
