:100000000C9475010C94A6010C94A6010C94A60105
:100010000C94A6010C94A6010C94A6010C94A601C4
:100020000C94A6010C94A6010C94A6010C94A601B4
:100030000C94A6010C94570D0C94A6010C94A601E7
:100040000C94A6010C94EB0E0C94A6010C94A60142
:100050000C94A6010C94A6010C94A6010C94170E06
:100060000C94A6010C94E10D0C94B70D0C94A60110
:100070000C94A6010C94A6010C94A6010C94A60164
:100080000C94BD0E0C94A6010C94A6010C94A60130
:100090000C94A6010C94A6010C94A6010C94A60144
:1000A0000C94A6010C94A6010C948F0E0C94A6013E
:1000B0000C94A6010C94A6010C94A6010C94610E5C
:1000C0000C94A6010C94A6010C94A6010C94A60114
:1000D0000C94A6010C94A6010C94A6010C94A60104
:1000E0000C94A6010C94EB160C9408150C94A90121
:1000F0000C9410030C9411090C94F7170C94E91745
:100100000C9416180C94FB020C94BE160C94ED087B
:100110000C9420030C942E030C940D030C943B03BD
:100120000C9432030C949A150C94D7080C94CD14AB
:100130000C9424030C9428030C9424170C9440036F
:100140000C9453150C943F020C94E6150C944E1825
:100150000C9405030C945B160C9418150C94B30BBB
:100160000C9493180C94D6010C9487180C941A03D1
:100170000C94E5010C9420160C947D080C94A617A1
:100180000C9409030C94B6080C9432170C943C039D
:100190000C945F150C948E140C94F9010C94190FA7
:1001A0000C94B0170C946D170C9401030C948C02F2
:1001B0000C9436030C9493160C9407020C941603BB
:1001C0000C94AA1500002100240027002A002D000D
:1001D0003000330001010000040107010A010000A2
:1001E00020002300260029002C002F0032000001EF
:1001F000000003010601090100000A0B02090C0DB1
:100200000E080703040100000000000000000000C9
:1002100000000000000000000000000000000000DE
:10022000000000001211100000000000000000009B
:1002300000000000000000000000000000000102BB
:1002400010202008081020401020408002010201E8
:1002500008040201010204081020408080402010A0
:1002600008040201800402018040201008040201F9
:100270000804020101020408102040800102040861
:100280001020408000002200250028002B002E00B6
:100290003100340002010000050108010B010505D1
:1002A0000505070508080808020202020A0A0808EC
:1002B000040404040101010101010101030303031A
:1002C00003030303040707070C0C0C0C0C0C0C0CA9
:1002D0000202020206060606060606060B0B0B0BBA
:1002E0000B0B0B0B0200190F931811241FBECFEF3D
:1002F000D1E2DEBFCDBF00E00CBF12E0A0E0B2E073
:10030000EEE1FDE300E00BBF02C007900D92A236C4
:10031000B107D9F724E0A2E6B2E001C01D92A835EA
:10032000B207E1F711E0C4E7D1E000E006C0219791
:100330000109802FFE010E943A1CC337D10780E0DB
:100340000807A9F70E94A70F0C947D1E0C940000CB
:100350000895AF92BF92CF92DF92EF92FF920F93E8
:100360001F93CF93DF936C017B018B01040F151F4B
:10037000EB015E01AE18BF08C017D10759F06991B3
:10038000D601ED91FC910190F081E02DC601199507
:10039000892B79F7C501DF91CF911F910F91FF90C4
:1003A000EF90DF90CF90BF90AF900895FC01538DF8
:1003B000448D252F30E0842F90E0821B930B54173F
:1003C00010F0CF96089501970895FC01918D828DCC
:1003D000981761F0A28DAE0FBF2FB11D5D968C9165
:1003E000928D9F5F9F73928F90E008958FEF9FEFA4
:1003F0000895FC01918D828D981731F0828DE80F60
:10040000F11D858D90E008958FEF9FEF0895FC0119
:10041000918D228D892F90E0805C9F4F821B9109E6
:100420008F739927089585EA92E00E94070221E0E0
:10043000892B09F420E0822F0895FC01A48DA80FD8
:10044000B92FB11DA35ABF4F2C91848D90E0019616
:100450008F739927848FA689B7892C93A089B18936
:100460008C91837080648C93938D848D981306C0D7
:100470000288F389E02D80818F7D80830895EF923B
:10048000FF920F931F93CF93DF93EC0181E0888F4E
:100490009B8D8C8D98131AC0E889F989808185FF1E
:1004A00015C09FB7F894EE89FF896083E889F989C0
:1004B00080818370806480839FBF81E090E0DF91C2
:1004C000CF911F910F91FF90EF900895F62E0B8D15
:1004D00010E00F5F1F4F0F731127E02E8C8D8E11D0
:1004E0000CC00FB607FCFACFE889F989808185FF37
:1004F000F5CFCE010E941D02F1CFEB8DEC0FFD2F49
:10050000F11DE35AFF4FF0829FB7F8940B8FEA89F1
:10051000FB8980818062CFCFCF93DF93EC01888D00
:100520008823B9F0AA89BB89E889F9898C9185FD6E
:1005300003C0808186FD0DC00FB607FCF7CF8C91FC
:1005400085FFF2CF808185FFEDCFCE010E941D0295
:10055000E9CFDF91CF91089580E090E0892B29F0D9
:100560000E94130281110E94000080E090E0892B1C
:1005700049F080E090E0892B29F00E940000811171
:100580000E94000080E090E0892B49F080E090E03C
:10059000892B29F00E94000081110E94000080E058
:1005A00090E0892B49F080E090E0892B29F00E94AF
:1005B000000081110C94000008958150823108F0F0
:1005C0005AC0E82FF0E08827E751FD4F8F4F0C9479
:1005D0003A1C09030D03FB02010305033B0310034F
:1005E00016031A032003240328032E0332033B03BC
:1005F00036033C034003809180008F778093800016
:100600000895809180008F7DF9CF80918000877F51
:10061000F5CF84B58F7784BD089584B58F7DFBCFEA
:100620008091B0008F778093B00008958091B000E2
:100630008F7DF9CF809190008F77809390000895FF
:10064000809190008F7DF9CF80919000877FF5CFCA
:100650008091A0008F778093A00008958091A000E2
:100660008F7DF9CF8091A000877FF5CF8091200109
:100670008F77809320010895809120018F7DF9CF9D
:1006800080912001877FF5CFCF93DF93282F30E033
:10069000F901E850FE4F8491F901E25CFD4FD491DD
:1006A000F901E256FD4FC491CC23A1F081110E94C3
:1006B000DD02EC2FF0E0EE0FFF1FE252FE4FA5919E
:1006C000B491EC91ED2381E090E009F480E0DF91BA
:1006D000CF91089580E090E0FACF1F93CF93DF93FE
:1006E000282F30E0F901E850FE4F8491F901E25CD7
:1006F000FD4FD491F901E256FD4FC491CC23A9F0EE
:10070000162F81110E94DD02EC2FF0E0EE0FFF1F8B
:10071000EC57FD4FA591B4918FB7F894EC9111115E
:1007200008C0D095DE23DC938FBFDF91CF911F915E
:100730000895DE2BF8CF9091050289130DC0E4EEE9
:10074000F2E0E4919FEF90930502E230E1F038F49B
:10075000EE2381F0E13089F060E00C946D03E43029
:1007600049F110F1E530C1F7909173009D7F9093AE
:100770007300F2CF10926E00EFCF90916F009D7FCB
:1007800090936F00E9CF909170009D7F90937000DF
:1007900091E09093B0009091B100987F9460909315
:1007A000B1001092B300D8CF909171009D7F9093CB
:1007B0007100D2CF909172009D7F90937200CCCF48
:1007C000CF93DF9390E0FC01E25CFD4F24918256D1
:1007D0009D4FFC0184918823D1F090E0880F991FF0
:1007E000FC01EC53FE4FA591B491FC01EC57FD4F79
:1007F000C591D491623071F49FB7F8943C91822FE7
:10080000809583238C93E8812E2B28839FBFDF91D3
:10081000CF9108958FB7F894EC912E2B2C938FBF26
:10082000F6CF0F931F93CF93DF93EC01862F20E138
:1008300032E03983288391E09A831F8218861986D3
:100840001A861B861C861D861E861F86188A198A94
:100850001A8A00E010E020E83FE30B8B1C8B2D8B05
:100860003E8B0F8B188F298F3A8F1B8E1C8E1D8EFF
:100870001E8E1F8E18A219A21AA26B834C8394E0BD
:100880009D8395E09E8361E00E94E00361E08C819E
:100890000E94E0038A81843061F461E08D810E94CE
:1008A000E00361E08E81DF91CF911F910F910C9455
:1008B000E003DF91CF911F910F910895CF93909115
:1008C0000502891721F09F3FC1F0CF910895E4EE12
:1008D000F2E0C491C7FDF9CF61E00E94E003CC23B0
:1008E00009F4F4C0C23009F008C18091B100887FDA
:1008F00084608093B10081EB90C180930502E4EEA7
:10090000F2E0C4919C2FCF3F01F3C23009F473C0D1
:1009100058F4CC2391F1C13009F44BC097FDD5CFE9
:1009200061E00E94E003DECFC43009F4ADC008F4FA
:1009300088C0C53099F71092200110922101909142
:1009400021019860909321019091210191609093F1
:100950002101282F30E0F901E256FD4FE491F0E04B
:10096000EE0FFF1FEC57FD4F45915491F901E25CEA
:10097000FD4FE491E0938502AFCF14BC15BC94B554
:10098000926094BD95B5916095BD282F30E0F90136
:10099000E256FD4FE491F0E0EE0FFF1FEC57FD4FE4
:1009A00045915491F901E25CFD4FE491E0938C0292
:1009B00093CF1092800010928100909181009860F6
:1009C0009093810090918100916090938100282FF5
:1009D00030E0F901E256FD4FE491F0E0EE0FFF1F29
:1009E000EC57FD4F45915491F901E25CFD4FE491C4
:1009F000E0938B0271CF1092B0001092B1009091F1
:100A0000B00092609093B0009091B100916090938B
:100A1000B100282F30E0F901E256FD4FE491F0E0FB
:100A2000EE0FFF1FEC57FD4F4591549150938A02F2
:100A300040938902F901E25CFD4FE491E093880262
:100A40004BCF10929000109291009091910098607D
:100A50009093910090919100916090939100282F34
:100A600030E0F901E256FD4FE491F0E0EE0FFF1F98
:100A7000EC57FD4F45915491F901E25CFD4FE49133
:100A8000E0938702C3E028CF1092A0001092A1004B
:100A90009091A10098609093A1009091A100916025
:100AA0009093A100282F30E0F901E256FD4FE49128
:100AB000F0E0EE0FFF1FEC57FD4F45915491F90107
:100AC000E25CFD4FE491E093860206CF85B5887F16
:100AD000836085BD81EB87BD8FEF9FEFDC01809345
:100AE000A1029093A202A093A302B093A4028091CA
:100AF0006E00826080936E00E8CEC130E9F4809190
:100B00008100887F81608093810083EA9CE29093DA
:100B10008900809388008FEF9FEFDC0180939D0216
:100B200090939E02A0939F02B093A00280916F00C9
:100B3000826080936F00C9CEC330E9F48091910048
:100B4000887F81608093910083EA9CE29093990072
:100B5000809398008FEF9FEFDC0180939502909334
:100B60009602A0939702B0939802809171008260E0
:100B700080937100AACEC430E9F48091A100887FEF
:100B800081608093A10083EA9CE29093A900809306
:100B9000A8008FEF9FEFDC01809391029093920267
:100BA000A0939302B093940280917200826080932C
:100BB00072008BCEC530E9F480912101887F81607D
:100BC0008093210183EA9CE290932901809328017C
:100BD0008FEF9FEFDC0180938D0290938E02A093A4
:100BE0008F02B093900280917300826080937300B3
:100BF0006CCEC23089F034F4CC2361F0C13009F0FE
:100C000064CE83CFC43009F4BECF0CF49DCFC53081
:100C1000C9F25BCE83EA5FCF83EA8093B3008FEFA4
:100C20009FEFDC018093990290939A02A0939B021C
:100C3000B0939C028091700082608093700045CEDA
:100C40003FB7F89480916B0290916C02A0916D0275
:100C5000B0916E0226B5A89B05C02F3F19F00196F2
:100C6000A11DB11D3FBFBA2FA92F982F8827BC0106
:100C7000CD01620F711D811D911D42E0660F771F2E
:100C8000881F991F4A95D1F708952FB7F89460915E
:100C90006702709168028091690290916A022FBF89
:100CA0000895CF93DF93C0918302D091840220975F
:100CB00031F0C130D105B9F0D0E0C0E010C00E94E1
:100CC000450660937F027093800280938102909327
:100CD000820281E090E09093840280938302CE01AF
:100CE000DF91CF9108950E944506AB01BC01809130
:100CF0007F0290918002A0918102B09182028C507B
:100D00009E4FAF4FBF4F84179507A607B707A0F6B2
:100D10001092840210928302E2CF0F931F930E94DD
:100D200045066093AD027093AE028093AF0290933C
:100D3000B00285EA92E00E94E50197FF1DC00E9483
:100D400045060091AD021091AE022091AF023091A4
:100D5000B002601B710B820B930B0091A9021091E2
:100D6000AA022091AB023091AC0260177107820792
:100D70009307F8F28FEF9FEF1F910F910895CF9295
:100D8000DF92EF92FF92CF93DF93EC01603282E02B
:100D90007807CCF5653B710514F064EB70E0898150
:100DA00028E830E0281B310987FD3395220F331FD7
:100DB000220F331F6901330FEE08FF088A8128E5EF
:100DC00032E0281B310987FD3395220F331F220F94
:100DD000331F032E000C440B550B2C193D094E09F3
:100DE0005F09DB0177FF02C0B0E0A0E00E94871A34
:100DF00024EB30E040E050E00E945D1AC20ED31EAA
:100E0000E41EF51EB601E881E03370F5298188E81B
:100E100090E0821B910927FD9395880F991F880FF9
:100E2000991F681779077CF02A8188E592E0821B78
:100E3000910927FD9395880F991F880F991F6817AF
:100E400079070CF4CB010297880F991F4FB7F894DC
:100E50002E2F30E0F901EE0FFF1FE20FF31FEE5BC4
:100E6000FC4F928381834FBFDF91CF91FF90EF9032
:100E7000DF90CF9008951F93CF93DF93EC01162F4F
:100E80008881803308F04EC061E0812F0E94E0032A
:100E90008881282F30E0F901EE0FFF1FE20FF31FCA
:100EA000EE5BFC4F1F736081607C612B6083198255
:100EB0001A822CE0622F0E942E1C829FB001112406
:100EC00030E020E0AB01420F531FFA01EE0FFF1F8D
:100ED000E40FF51FEE5BFC4F908196FD16C02F5F6F
:100EE0003F4F2C30310571F7813009F510928000A9
:100EF00082E0809381001092850010928400B19A64
:100F000080916F00826080936F00E8818E2F90E067
:100F1000FC01EE0FFF1FE80FF91FEE5BFC4F808115
:100F2000806480838881DF91CF911F910895823002
:100F300061F41092900080939100109295001092AD
:100F4000940088BB80937100E0CF833069F41092E5
:100F5000A00082E08093A1001092A5001092A4004E
:100F600089BB80937200D1CF8111CFCF1092200125
:100F700082E08093210110922501109224018ABB06
:100F800080937300C2CFAF92BF92CF92DF92EF9265
:100F9000FF920F931F93CF93DF936B017A01EC01C4
:100FA000CE59DD4F28813CE0389F8001399F100DDC
:100FB0001124A090D203B12C27FF1FC0FB01118286
:100FC000108288818F5F888388819801280F311D66
:100FD00087FD3A95F6012A153B051CF488818C3073
:100FE000C4F180819181049680349C4908F473C0D7
:100FF000F60180819181049670C088819801280F44
:10100000311D87FD3A952A153B05DCF68881A8013C
:10101000480F511D87FD5A95FA01EE0FFF1FE40F8F
:10102000F51FEE5BFC4F808186FFCBCF8881F801F6
:10103000E80FF11D87FDFA95CF01EE0FFF1FE80FB6
:10104000F91FEE5BFC4F808160E08F730E946D039F
:10105000B8CF808191812881A801420F511D27FDC1
:101060005A959A01FA01EE0FFF1FE20FF31FEE5B94
:10107000FC4F21813281820F931FF701918380837E
:1010800088819801280F311D87FD3A95F901EE0FEF
:10109000FF1FE20FF31FEE5BFC4F808186FF22C033
:1010A0008881080F111D87FD1A95F801EE0FFF1FAB
:1010B000E00FF11FEE5BFC4F808161E08F73DF91E9
:1010C000CF911F910F91FF90EF90DF90CF90BF9045
:1010D000AF900C946D0380E49CE9F70191838083C9
:1010E0008FEF8883DF91CF911F910F91FF90EF9049
:1010F000DF90CF90BF90AF900895CF93DF93EC0136
:101100006130D1F038F06230E9F0633049F1DF91BD
:10111000CF91089561E08B810E946D0360E08C8126
:101120000E946D0361E08D810E946D0360E08E81FD
:10113000DF91CF910C946D0360E08B810E946D0371
:1011400061E0EDCF60E08B810E946D0361E08C81F6
:101150000E946D0360E08D810E946D0361E0E7CF26
:1011600061E08B810E946D0360E0F1CFCF93DF934C
:10117000EC01613091F038F0623089F06330A9F011
:10118000DF91CF91089560E08B810E946D0361E053
:101190008C81DF91CF910C946D0361E0F5CF61E01C
:1011A0008B810E946D0360E0F3CF60E0F9CFCF93B5
:1011B000DF93EC0120E030E0A9016F85788989890F
:1011C0009A890E94CE1B18162CF4EBA1FCA1DF918A
:1011D000CF911994EDA1FEA1FACFDC0112962C91CA
:1011E0001297213061F028F0223079F0243099F004
:1011F0000895ED91FC910280F381E02D1994ED9119
:10120000FC910480F581E02D1994ED91FC9106800C
:10121000F781E02DF9CFED91FC910084F185E02D6F
:10122000F3CF1F93CF93DF93EC0111E020E030E088
:10123000A9016F85788989899A890E94CE1B181621
:101240000CF010E0612F8C810E946D0361E08B81B6
:101250000E946D0360E08B81DF91CF911F910C9410
:101260006D0342E050E06EE272E085EA92E00C9499
:10127000A901CF93DF93FC0101900020E9F731979A
:10128000AF01481B590BBC0185EA92E00E94A901FD
:10129000EC010E9431098C0F9D1FDF91CF910895C1
:1012A00081E392E00E9439098AE590E0909303027D
:1012B0008093020260E080E30E946D0382E10E945D
:1012C0004403019721F48EE20E945E04F7CF8EE280
:1012D0000E949B0310927A021092790260E08DE3E3
:1012E0000E946D038FE00E944403019721F48CE378
:1012F0000E945E04F7CF8CE30E949B0310927C0255
:1013000010927B026AE570E08CED93E00E94BF06CC
:101310006AE570E089ED93E00E94BF0660E087E334
:101320000E946D038EE00E944403019721F486E33E
:101330000E945E04F7CF86E30E949B031092340460
:1013400010923504109236041092370410920D0456
:1013500010920E0410920F04109210041092E603E3
:101360001092E7031092E8031092E90388E59BE1ED
:1013700090937E0280937D0288E795E090937C02B3
:1013800080937B0288E592E090937A0280937902C1
:1013900087E392E00C943909CF93DF93FC014481F9
:1013A00055816081718185EA92E00E94A901EC017A
:1013B0000E9431098C0F9D1FDF91CF910895CF932B
:1013C000DF93682F8091D7039091D803892B89F000
:1013D000C091D303D091D403062E000C770BCE011D
:1013E0000E94511E009729F08C1B9D0BDF91CF911D
:1013F00008958FEF9FEFFACFCF93DF932091D7031C
:101400003091D803232B89F0FC01C091D303D091F4
:10141000D40360817181CE010E94631E009729F080
:101420008C1B9D0BDF91CF9108958FEF9FEFFACF2B
:10143000CF93DF93EC0188819981009711F00E948E
:10144000DE1C198218821D821C821B821A82DF9187
:10145000CF910895FC0180819181009711F00C9447
:10146000DE1C0895FC0180819181009711F00C949D
:10147000971860E070E0CB0108950F931F93CF930E
:10148000DF93EC0188819981009759F02A813B8193
:101490002617370730F081E0DF91CF911F910F9130
:1014A00008958B016F5F7F4F0E94671D009759F071
:1014B000998388831B830A832C813D81232B59F7D1
:1014C000FC011082E8CF80E0E7CFEF92FF920F930C
:1014D0001F93CF93DF936115710541F480E0DF9195
:1014E000CF911F910F91FF90EF90089541155105F5
:1014F000B1F07B01EC010C811D81040F151FB801B7
:101500000E943D0A882351F3288139818C819D8175
:10151000B701820F931F0E945C1E1D830C8381E024
:10152000DECFCF93DF93EC01FB0101900020E9F7C0
:101530003197AF01461B570B0E94650A811103C00A
:10154000CE010E94180ACE01DF91CF910895CF936A
:10155000DF93EC01FB0144815581608171810E9420
:10156000650A811103C0CE010E94180ACE01DF91E5
:10157000CF910895EF92FF920F931F93CF93DF9334
:10158000EC017B018A01BA010E943D0A81110BC066
:10159000CE010E94180ACE01DF91CF911F910F91C9
:1015A000FF90EF9008951D830C83B7018881998186
:1015B0000E945C1EF0CFFB0101900020E9F73197FB
:1015C000AF01461B570B0C94BA0A0F931F93CF938E
:1015D000DF93CDB7DEB762970FB6F894DEBF0FBECC
:1015E000CDBF8C01CB01F8011182108213821282CF
:1015F000158214824AE0BE016F5F7F4F0E94BE18C1
:10160000BE016F5F7F4FC8010E94DB0A62960FB672
:10161000F894DEBF0FBECDBFDF91CF911F910F9128
:1016200008950F931F93CF93DF93CDB7DEB7A297A3
:101630000FB6F894DEBF0FBECDBF8C01CB01BA014F
:10164000F8011182108213821282158214822AE01C
:10165000AE014F5F5F4F0E94C918BE016F5F7F4FA1
:10166000C8010E94DB0AA2960FB6F894DEBF0FBE37
:10167000CDBFDF91CF911F910F910895FB01DC0148
:1016800011961C921E9213961C921E9212971596FA
:101690001C921E9214978617970749F060817181FA
:1016A0006115710521F0448155810C94BA0A0895A1
:1016B000FC01118210821382128215821482FB01B6
:1016C00001900020E9F73197AF01461B570B0C94AE
:1016D000BA0ACF92DF92EF92FF920F931F93CF93AC
:1016E000DF936C017B018A014617570720F48F2D89
:1016F0007A01062F182F60E372E0C6010E94580B92
:10170000C091D703D091D803EC16FD06F8F40C175E
:101710001D0708F4E801E091D303F091D403EC0F26
:10172000FD1F108110826091D3037091D4036E0D60
:101730007F1DC6016115710599F00E94DB0A809139
:10174000D3039091D403C80FD91F1883C601DF912A
:10175000CF911F910F91FF90EF90DF90CF90089560
:101760000E94180AECCF4F925F926F927F928F92F5
:101770009F92AF92BF92CF92DF92EF92FF92CF9360
:10178000DF93EC016B857C858D859E85CF80D88429
:10179000E984FA846C197D098E099F09C12CD12C2A
:1017A000760109F445C04F88588C698C7A8C1616DE
:1017B0001706180619060CF04CC00E9440199B0130
:1017C000AC010E94C11AA30192010E949F190E94BC
:1017D000D91B6B017C018F849888A988BA88A701DE
:1017E0009601C501B4010E94391987FF66C020E047
:1017F00030E0A901C501B4010E943919811143C02B
:10180000A3019201C301B2010E94C11A0E94D91B17
:101810004B015C01CB88DC88ED88FE889B01AC0124
:10182000C701B6010E94391987FD02C06401750124
:10183000C701B601DF91CF91FF90EF90DF90CF907D
:10184000BF90AF909F908F907F906F905F904F90E0
:10185000089590958095709561957F4F8F4F9F4F1C
:101860000E9440199B01AC010E94C11AA301920180
:101870000E949F190E94D91B6B017C01F7FAF0941A
:10188000F7F8F094A8CFA5019401C301B2010E941A
:101890002D1B6B017C0120E030E0A9010E94CE1BD2
:1018A000181624F0F7FAF094F7F8F094A7019601CF
:1018B000C501B4010E94C11AABCFA7019601C501B1
:1018C000B4010E94CE1B18160CF0B2CF20E030E01D
:1018D000A901C501B4010E943919811122C0A301D7
:1018E0009201C301B2010E94C11A0E94D91B4B018F
:1018F0005C01B7FAB094B7F8B094CB88DC88ED8877
:10190000FE88F7FAF094F7F8F094A5019401C70166
:10191000B6010E94CE1B18160CF48ACF7501640123
:1019200087CFA5019401C301B2010E942D1B6B0159
:101930007C0120E030E0A9010E94CE1B181624F0A3
:10194000F7FAF094F7F8F094A7019601C501B401F5
:101950000E94C01A4B015C01D0CFCF92DF92EF9270
:10196000FF92CF93DF93EC010E94B30B9B01AC017C
:101970002F87388B498B5A8B60E070E08AEF94E4B4
:101980000E942D1B6B017C0120E030E0A9010E9428
:10199000CE1B18167CF4C701B6010E949F1B6B8FEB
:1019A0007C8F8D8F9E8FDF91CF91FF90EF90DF9096
:1019B000CF900895C701B6019058EFCF4F925F9234
:1019C0006F927F928F929F92AF92BF92CF92DF924F
:1019D000EF92FF92CF93DF93EC014B855C856D8591
:1019E0007E858F819885A985BA85481759076A072A
:1019F0007B0709F44CC00E9445064B015C018F8DAA
:101A000098A1A9A1BAA14B8D5C8D6D8D7E8D840F9F
:101A1000951FA61FB71F88159905AA05BB0530F5A8
:101A20004F84588869887A88CF80D884E984FA847A
:101A300020E030E0A901C301B2010E94CE1B1816BC
:101A4000BCF48FEFC81AD80AE80AF80ACF82D88601
:101A5000E986FA866F816370CE010E94ED088F8E51
:101A600098A2A9A2BAA2CE010E94AD0C81E010C03A
:101A700020E030E0A901C301B2010E94391987FFBB
:101A8000E9CF81E0C81AD108E108F108DFCF80E092
:101A9000DF91CF91FF90EF90DF90CF90BF90AF900C
:101AA0009F908F907F906F905F904F9008951F92BE
:101AB0000F920FB60F9211240BB60F922F933F93F4
:101AC0004F935F936F937F938F939F93AF93BF9346
:101AD000EF93FF938091990290919A02A0919B02BB
:101AE000B0919C02892B8A2B8B2BE1F1909188027B
:101AF000E0918902F0918A02808189278083809118
:101B0000990290919A02A0919B02B0919C021816A2
:101B100019061A061B069CF48091990290919A026C
:101B2000A0919B02B0919C020197A109B1098093F9
:101B3000990290939A02A0939B02B0939C02FF910A
:101B4000EF91BF91AF919F918F917F916F915F9135
:101B50004F913F912F910F900BBE0F900FBE0F90A2
:101B60001F901895809105020E949B03E8CF1F9259
:101B70000F920FB60F9211240BB60F922F933F9333
:101B80004F935F936F937F938F939F93AF93BF9385
:101B9000EF93FF9385EA92E00E941D02FF91EF917F
:101BA000BF91AF919F918F917F916F915F914F9175
:101BB0003F912F910F900BBE0F900FBE0F901F9073
:101BC00018951F920F920FB60F9211240BB60F9219
:101BD0002F938F939F93EF93FF93E091B502F09132
:101BE000B6028081E091BB02F091BC0282FD1DC073
:101BF00090818091BE028F5F8F732091BF02821708
:101C000041F0E091BE02F0E0EB55FD4F958F8093DF
:101C1000BE02FF91EF919F918F912F910F900BBE7C
:101C20000F900FBE0F901F9018958081F2CF1F92DA
:101C30000F920FB60F9211242F933F938F939F9380
:101C4000AF93BF938091670290916802A09169025F
:101C5000B0916A023091660223E0230F2D3758F5C8
:101C60000196A11DB11D2093660280936702909397
:101C70006802A0936902B0936A0280916B0290910E
:101C80006C02A0916D02B0916E020196A11DB11D72
:101C900080936B0290936C02A0936D02B0936E02DE
:101CA000BF91AF919F918F913F912F910F900FBE58
:101CB0000F901F90189526E8230F0296A11DB11DC5
:101CC000D2CF1F920F920FB60F9211240BB60F9224
:101CD0002F933F934F935F936F937F938F939F9334
:101CE000AF93BF93EF93FF9348E251E064E271E05A
:101CF00090E080E00E94C307FF91EF91BF91AF9108
:101D00009F918F917F916F915F914F913F912F9113
:101D10000F900BBE0F900FBE0F901F9018951F9243
:101D20000F920FB60F9211240BB60F922F933F9381
:101D30004F935F936F937F938F939F93AF93BF93D3
:101D4000EF93FF9348EA50E064EA70E083E090E0AC
:101D50000E94C307FF91EF91BF91AF919F918F9127
:101D60007F916F915F914F913F912F910F900BBE9B
:101D70000F900FBE0F901F9018951F920F920FB6E5
:101D80000F9211240BB60F922F933F934F935F93B3
:101D90006F937F938F939F93AF93BF93EF93FF9333
:101DA00048E950E064E970E082E090E00E94C307F7
:101DB000FF91EF91BF91AF919F918F917F916F9123
:101DC0005F914F913F912F910F900BBE0F900FBEDF
:101DD0000F901F9018951F920F920FB60F9211241B
:101DE0000BB60F922F933F934F935F936F937F9315
:101DF0008F939F93AF93BF93EF93FF9348E850E087
:101E000064E870E081E090E00E94C307FF91EF91E9
:101E1000BF91AF919F918F917F916F915F914F9102
:101E20003F912F910F900BBE0F900FBE0F901F9000
:101E300018951092A8021092A70288EE93E0A0E0F5
:101E4000B0E08093A9029093AA02A093AB02B09352
:101E5000AC0280E292E09093A6028093A50285EC0A
:101E600090E09093B2028093B10284EC90E0909362
:101E7000B4028093B30280EC90E09093B60280931A
:101E8000B50281EC90E09093B8028093B70282ECA7
:101E900090E09093BA028093B90286EC90E0909320
:101EA000BC028093BB021092BE021092BF0210923D
:101EB000C0021092C10247E366E38DE294E00E9403
:101EC00011044DE36CE386E094E00E94110440E3CA
:101ED0006EE28FED93E00E9411048091D203803373
:101EE00070F591E0980F9093D2038093DC0390E01B
:101EF000FC01EE0FFF1FE80FF91FEE5BFC4F88EBB4
:101F00009BE0928381838091D2038033E0F491E05F
:101F1000980F9093D2038093D90390E0FC01EE0FC9
:101F2000FF1FE80FF91FEE5BFC4F88EB9BE09283ED
:101F3000818360E372E083ED93E00C94580B8FEFA4
:101F40008093DC03E0CF8FEF8093D903F2CFCF9360
:101F5000DF93CDB7DEB7A6970FB6F894DEBF0FBEFE
:101F6000CDBF789484B5826084BD84B5816084BD22
:101F700085B5826085BD85B5816085BD80916E0027
:101F8000816080936E001092810080918100826058
:101F90008093810080918100816080938100809195
:101FA00080008160809380008091B1008460809384
:101FB000B1008091B00081608093B0008091910069
:101FC0008260809391008091910081608093910064
:101FD000809190008160809390008091A100826048
:101FE0008093A1008091A10081608093A1008091E5
:101FF000A00081608093A000809121018260809385
:102000002101809121018160809321018091200133
:1020100081608093200180917A00846080937A00AF
:1020200080917A00826080937A0080917A0081604A
:1020300080937A0080917A00806880937A00109271
:10204000C10061E086E20E94E00361E088E30E9453
:10205000E00361E08EE30E94E00361E087E30E9419
:10206000E00361E08DE30E94E00361E080E30E9411
:10207000E00360E086E20E946D0360E088E30E9476
:102080006D0360E08EE30E946D0362E08EE00E94CB
:10209000E00362E08FE00E94E00362E082E10E94E0
:1020A000E00361E089E00E94E00361E08AE00E94D1
:1020B000E00365E070E08CED93E00E943B076091E7
:1020C0000202709103028CED93E00E94BF0664E06F
:1020D00070E089ED93E00E943B076AE570E089EDCE
:1020E00093E00E94BF060E9420064B015C0178EE3F
:1020F000C72E73E0D72EE12CF12C0E942006681920
:1021000079098A099B09683E734081059105A8F306
:1021100021E0C21AD108E108F10888EE880E83E0B8
:10212000981EA11CB11CC114D104E104F10429F7CB
:10213000C12C80E5D82E83ECE82E87E4F82EC092DF
:102140004004D0924104E0924204F09243048DE2B4
:1021500094E00E94AD0CC0924404D0924504E092F9
:102160004604F09247048DE294E00E94AD0C812C6D
:1021700094E2992E94EFA92E98E4B92E8092190436
:1021800090921A04A0921B04B0921C0486E094E082
:102190000E94AD0CC0921D04D0921E04E0921F0458
:1021A000F092200486E094E00E94AD0C8092F2034D
:1021B0009092F303A092F403B092F5038FED93E0B5
:1021C0000E94AD0CC092F603D092F703E092F803A0
:1021D000F092F9038FED93E00E94AD0CE091B5020F
:1021E000F091B60282E08083E091B102F091B202F8
:1021F0001082E091B302F091B40280E180831092EA
:10220000BD02E091B902F091BA0286E08083E091CC
:10221000B702F091B802808180618083E091B702BB
:10222000F091B802808188608083E091B702F091DC
:10223000B802808180688083E091B702F091B80293
:1022400080818F7D80830E94450660937102709328
:10225000720280937302909374028E010F5F1F4F7E
:10226000CC24C394D12C3AE5632E712C4DE0242E5E
:10227000312C58E5A52E5BE1B52E68E7E62E65E02A
:10228000F62E80910402882321F0109204020E940D
:10229000500985EA92E00E940702181619060CF010
:1022A00081C060E372E0C8010E94580B0E948D0655
:1022B00097FD0BC089871A8641E050E0BE01675F39
:1022C0007F4FC8010E94650AF1CF8091D30390919E
:1022D000D403009709F4BAC169817A816115710547
:1022E00009F4B2C14091D5035091D6032D813E81AE
:1022F0004217530708F4A8C10E945C1E8D819E817D
:102300009093D8038093D7031E821D82C8010E9438
:102310002A0A81E20E94DF09181619060CF042C051
:102320008EE392E00E94390963E472E0C8010E94E2
:10233000580BC8010E94FC094C01C8010E942A0ADE
:1023400097FC9BC10E94500980917D0290917E0272
:1023500097FF04C010927E0210927D0280917B0252
:1023600090917C0297FF04C010927C0210927B0235
:102370008091790290917A0297FF04C010927A02BC
:1023800010927902809102029091030297FF04C09B
:10239000109203021092020260E372E083ED93E078
:1023A0000E94DB0A85EA92E00E948C020E944506A8
:1023B000AB01BC018091710290917202A0917302F5
:1023C000B091740288519C4FAF4FBF4F841795074F
:1023D000A607B70708F0CDC0409002025090030254
:1023E0004091E6035091E7036091E8037091E9039F
:1023F000CE0109960E94110B40910D0450910E04DC
:1024000060910F0470911004CE010F960E94110B81
:102410004091340450913504609136047091370432
:10242000CE0145960E94110B64E572E0CE014B96F9
:102430000E94580BBE016B5E7F4FCE014B960E94EF
:10244000A70A67E572E00E94910ABE01615F7F4FB3
:102450000E94A70A69E572E00E94910ABE01675FC7
:102460007F4F0E94A70A6BE572E00E94910A4C011F
:102470004AE0B801C2010E94BE18F8010190002094
:10248000E9F73197AF01401B510BB801C4010E941D
:10249000650A811103C0C4010E94180A61E472E058
:1024A000C4010E94910ABC01CE0181960E943E0B9C
:1024B000CE014B960E942A0ACE0145960E942A0A16
:1024C000CE010F960E942A0ACE0109960E942A0A7E
:1024D0006091750270917602C8010E94E50A6091D0
:1024E000770270917802CE0109960E94E50A6DE5A7
:1024F00072E0CE010F960E94580BBE01675F7F4FBE
:10250000CE010F960E94A70A60E672E00E94910A2F
:10251000B8010E94A70A61E472E00E94910ABC011E
:10252000CE0145960E943E0BCE010F960E942A0ACC
:10253000CE0109960E942A0AC8010E942A0ACE01E9
:1025400081960E94CC09CE0145960E94CC090E943A
:1025500045066093710270937202809373029093A8
:102560007402CE0145960E942A0ACE0181960E94ED
:102570002A0A8091000290910102181619063CF473
:102580008130910509F4AFC1029709F4B1C380917C
:102590007D0290917E02092E000CAA0BBB0B80934A
:1025A000380490933904A0933A04B0933B048DE22D
:1025B00094E00E94AD0C80917B0290917C02092EE8
:1025C000000CAA0BBB0B8093110490931204A093F0
:1025D0001304B093140486E094E00E94AD0C809143
:1025E000790290917A02092E000CAA0BBB0B809302
:1025F000EA039093EB03A093EC03B093ED038FED0C
:1026000093E00E94AD0C60910202709103028CED88
:1026100093E00E94BF066091770289E00E946D03FB
:10262000609175028AE00E946D038DE294E00E9441
:10263000DE0C86E094E00E94DE0C8FED93E00E94B9
:10264000DE0C0E94AC021DCE0E94DE1C89819A81A4
:102650009093D4038093D3038B819C819093D60372
:102660008093D5038D819E819093D8038093D70367
:102670001A8219821C821B8247CE68E472E0C8016C
:102680000E94580BC8010E94FC094C01C8010E941D
:102690002A0A97FC0DC0D0920102C0920002D0928B
:1026A0007002C0926F0281E392E00E9439094CCE21
:1026B0006EE472E0C8010E94580BC8010E94FC0938
:1026C0004C01C8010E942A0A97FEE5CF88E50E94C6
:1026D000DF094C0197FD14C089E50E94DF09B401B0
:1026E0006F5F7F4FAC01C8010E94690BC8010E9457
:1026F000320A70937E0260937D02C8010E942A0A0A
:1027000088E70E94DF0997FD09C080917D029091C2
:102710007E02C29690937E0280937D0281E60E94A3
:10272000DF0997FD09C080917D0290917E02C297DA
:1027300090937E0280937D0289E50E94DF094C011F
:1027400097FD14C08AE50E94DF09B4016F5F7F4FD7
:10275000AC01C8010E94690BC8010E94320A709343
:102760007C0260937B02C8010E942A0A89E70E94CA
:10277000DF0997FD09C080917B0290917C02C2968F
:1027800090937C0280937B0282E60E94DF0997FD92
:1027900009C080917B0290917C02C29790937C0249
:1027A00080937B028AE50E94DF094C0197FD14C0EB
:1027B00083E50E94DF09B4016F5F7F4FAC01C80160
:1027C0000E94690BC8010E94320A70937A026093DA
:1027D0007902C8010E942A0A8AE70E94DF0997FD50
:1027E00009C08091790290917A02C29690937A0200
:1027F0008093790283E60E94DF0997FD09C08091EA
:10280000790290917A02C29790937A02809379022A
:1028100083E50E94DF094C0197FD14C081E20E940C
:10282000DF09B4016F5F7F4FAC01C8010E94690BE3
:10283000C8010E94320A7093030260930202C80129
:102840000E942A0A83E70E94DF0997FD09C0809150
:102850000202909103020196909303028093020278
:1028600084E60E94DF0997FD09C0809102029091E1
:1028700003020197909303028093020282E40E9474
:10288000DF094C0186E50E94DF0997FC11C0B40105
:102890006F5F7F4FAC01C8010E94690BC8010E94A5
:1028A000320A7093780260937702C8010E942A0A64
:1028B00086E50E94DF094C0197FD46CD81E20E942A
:1028C000DF09B4016F5F7F4FAC01C8010E94690B43
:1028D000C8010E94320A7093760260937502C801A3
:1028E0000E942A0A31CDE0916F02F0917002319777
:1028F000EC30F10508F0EDC18827EE57FB4E8F4F05
:102900000C943A1C8E14CD14081518153217531553
:102910005F159A15AA15E61520165B168CEB92E04A
:1029200090937E0280937D0282E390E090937C02FC
:1029300080937B0290937A02809379028091340491
:1029400090913504A0913604B09137048C3B9240AD
:10295000A105B10509F01BCE80910D0490910E04E4
:10296000A0910F04B0911004C297A105B10509F020
:102970000ECE8091E6039091E703A091E803B09119
:10298000E903C297A105B10509F001CE82E090E00C
:102990009093700280936F02FACD8CEB92E090934B
:1029A0007E0280937D0282E390E090937C0280938C
:1029B0007B0290937A028093790280913404909103
:1029C0003504A0913604B09137048C3B9240A105A8
:1029D000B10509F0DCCD80910D0490910E04A09119
:1029E0000F04B0911004C297A105B10509F0CFCD35
:1029F0008091E6039091E703A091E803B091E90389
:102A0000C297A105B10509F0C2CD83E090E0C0CF27
:102A1000D0927802C09277021092760210927502DC
:102A20000E945106019709F0B2CD84E090E0B0CF4A
:102A30008CEB92E090937E0280937D0282E390E0A3
:102A400090937C0280937B0290937A028093790228
:102A50008091340490913504A0913604B0913704EC
:102A60008C3B9240A105B10509F091CD80910D04F8
:102A700090910E04A0910F04B0911004C297A1058B
:102A8000B10509F084CD8091E6039091E703A09110
:102A9000E803B091E903C297A105B10509F077CD2C
:102AA00085E090E075CF70920302609202020E946E
:102AB0005106019709F06BCD87E090E069CF8CEB70
:102AC00092E090937E0280937D0282E390E0909367
:102AD0007C0280937B0290937A02809379028091AA
:102AE000340490913504A0913604B09137048C3BA6
:102AF0009240A105B10509F04ACD80910D04909155
:102B00000E04A0910F04B0911004C297A105B10565
:102B100009F03DCD8091E6039091E703A091E80391
:102B2000B091E903C297A105B10509F030CD88E065
:102B300090E02ECFD0927802C09277021092760267
:102B4000109275020E945106019709F020CD89E08C
:102B500090E01ECF8CEB92E090937E0280937D02FA
:102B6000F0927C02E0927B0282E390E090937A0202
:102B7000809379028091340490913504A0913604B9
:102B8000B09137048C3B9240A105B10509F0FFCC10
:102B900080910D0490910E04A0910F04B091100447
:102BA00088379540A105B10509F0F1CC8091E60385
:102BB0009091E703A091E803B091E903C297A105C2
:102BC000B10509F0E4CC8AE090E0E2CEB0927E025A
:102BD000A0927D02F0927C02E0927B0282E390E080
:102BE00090937A0280937902809134049091350415
:102BF000A0913604B091370488359B41A105B105F9
:102C000009F0C5CC80910D0490910E04A0910F04A1
:102C1000B091100488379540A105B10509F0B7CCF3
:102C20008091E6039091E703A091E803B091E90356
:102C3000C297A105B10509F0AACC8BE090E0A8CE1F
:102C4000B0927E02A0927D02F0927C02E0927B0222
:102C500088E592E090937A0280937902809134041F
:102C600090913504A0913604B091370488359B418A
:102C7000A105B10509F08BCC80910D0490910E0453
:102C8000A0910F04B091100488379540A105B105BB
:102C900009F07DCC8091E6039091E703A091E803D1
:102CA000B091E90388359240A105B10509F06FCCD8
:102CB0008CE090E06DCE70920302609202020E945E
:102CC0005106019709F063CC3092700220926F0296
:102CD0005ECC8FEF9FEF90930102809300021092E1
:102CE000700210926F0287E392E00E9439094FCC84
:102CF000E0916F02F09170023197ED30F10548F7E5
:102D00008827EA57F94E8F4F0C943A1C9316BE163B
:102D1000EB16241732176D17A617B017E917F71718
:102D200016184E188718B0927E02A0927D02F0927B
:102D30007C02E0927B0282E390E090937A0280939F
:102D400079028091340490913504A0913604B091B9
:102D5000370488359B41A105B10509F018CC809155
:102D60000D0490910E04A0910F04B09110048837C7
:102D70009540A105B10509F00ACCFBCD8CEB92E0A2
:102D800090937E0280937D02F0927C02E0927B021F
:102D900082E390E090937A028093790280913404E8
:102DA00090913504A0913604B09137048C3B924049
:102DB000A105B10509F0EBCB80910D0490910E04B3
:102DC000A0910F04B091100488379540A105B1057A
:102DD00009F0DDCB0DCE8CEB92E090937E028093D8
:102DE0007D0210927C0210927B0282E390E090932D
:102DF0007A02809379028091340490913504A091F5
:102E00003604B09137048C3B9240A105B10509F01E
:102E1000BECB80910D0490910E04A0910F04B0914F
:102E20001004892B8A2B8B2B09F0B1CB8091E60300
:102E30009091E703A091E803B091E903C297A1053F
:102E4000B10509F0A4CBF1CDD0927802C0927702FF
:102E500010927602109275020E945106019709F0B5
:102E600096CB1ECE8CEB92E090937E0280937D02F7
:102E700082E390E090937C0280937B0290937A02AD
:102E8000809379028091340490913504A0913604A6
:102E9000B09137048C3B9240A105B10509F077CB86
:102EA00080910D0490910E04A0910F04B091100434
:102EB000C297A105B10509F06ACB8091E603909114
:102EC000E703A091E803B091E903C297A105B1051A
:102ED00009F05DCB86E090E05BCD8CEB92E09093C7
:102EE0007E0280937D0282E390E090937C02809347
:102EF0007B0290937A0280937902809134049091BE
:102F00003504A0913604B09137048C3B9240A10562
:102F1000B10509F03CCB80910D0490910E04A09175
:102F20000F04B0911004C297A105B10509F02FCB91
:102F30008091E6039091E703A091E803B091E90343
:102F4000C297A105B10509F022CBB6CD709203025C
:102F5000609202020E945106019709F018CBE7CD5A
:102F60008CEB92E090937E0280937D0282E390E06E
:102F700090937C0280937B0290937A0280937902F3
:102F80008091340490913504A0913604B0913704B7
:102F90008C3B9240A105B10509F0F9CA80910D045E
:102FA00090910E04A0910F04B0911004C297A10556
:102FB000B10509F0ECCA8091E6039091E703A09176
:102FC000E803B091E903C297A105B10509F0DFCA92
:102FD000BECDD0927802C092770210927602109203
:102FE00075020E945106019709F0D1CAECCD8CEB15
:102FF00092E090937E0280937D02F0927C02E092B8
:103000007B0282E390E090937A0280937902809130
:10301000340490913504A0913604B09137048C3B70
:103020009240A105B10509F0B2CAECCDB0927E0282
:10303000A0927D02F0927C02E0927B0282E390E01B
:1030400090937A02809379028091340490913504B0
:10305000A0913604B091370488359B41A105B10594
:1030600009F095CA80910D0490910E04A0910F046F
:10307000B091100488379540A105B10509F087CAC1
:103080008091E6039091E703A091E803B091E903F2
:10309000C297A105B10509F07ACA0ACEB0927E02A4
:1030A000A0927D02F0927C02E0927B0288E592E0A1
:1030B00090937A0280937902809134049091350440
:1030C000A0913604B091370488359B41A105B10524
:1030D00009F05DCA80910D0490910E04A0910F0437
:1030E000B091100488379540A105B10509F04FCA89
:1030F0008091E6039091E703A091E803B091E90382
:1031000088359240A105B10509F041CADDCD709224
:103110000302609202020E945106019709F037CA29
:103120008EE090E035CC83ED93E00C942A0A1F9357
:10313000FC0199278827BC01E89411911032E9F32A
:10314000193010F01E30C8F31B3251F01D3249F413
:10315000689406C00E94D818610F711D811D911DD1
:10316000119110531A30B0F33EF4909580957095FC
:1031700061957F4F8F4F9F4F1F910895BB274A3016
:1031800031F4992322F4BDE2909581959F4F0C94E0
:103190001019BB272A3051F4992342F4BDE29095CF
:1031A0008095709561957F4F8F4F9F4F0C94EE18CF
:1031B000592F482F372F262F660F771F881F991FEB
:1031C000660F771F881F991F620F731F841F951F3B
:1031D000660F771F881F991F0895BB27FA01A62F36
:1031E0006217710581059105330B30FB66F0AA2744
:1031F000660F771F881F991FAA1FA21710F0A21B26
:1032000063953850A9F7A05DAA3308F0A95DA19392
:1032100036F7B111B1931082CA010C942919BB275A
:10322000FB015527AA27880F991FAA1FA41710F082
:10323000A41B83955051B9F7A05DAA3308F0A95D8E
:10324000A193009779F7B111B1931192CB010C942E
:103250002919DC01FC01672F71917723E1F732977F
:1032600004C07C916D9370836291AE17BF07C8F361
:1032700008950E947B1908F481E00895E89409C03C
:1032800097FB3EF490958095709561957F4F8F4F99
:103290009F4F9923A9F0F92F96E9BB279395F695AF
:1032A000879577956795B795F111F8CFFAF4BB0F2D
:1032B00011F460FF1BC06F5F7F4F8F4F9F4F16C091
:1032C000882311F096E911C0772321F09EE8872F1B
:1032D000762F05C0662371F096E8862F70E060E0D7
:1032E0002AF09A95660F771F881FDAF7880F969550
:1032F000879597F90895990F0008550FAA0BE0E8F4
:10330000FEEF16161706E807F907C0F012161306A7
:10331000E407F50798F0621B730B840B950B39F4E7
:103320000A2661F0232B242B252B21F408950A264D
:1033300009F4A140A6958FEF811D811D08950E947B
:10334000B2190C94231A0E94151A38F00E941C1A04
:1033500020F0952311F00C940C1A0C94121A1124DD
:103360000C94571A0E94341A70F3959FC1F3950F6D
:1033700050E0551F629FF001729FBB27F00DB11DF9
:10338000639FAA27F00DB11DAA1F649F6627B00D89
:10339000A11D661F829F2227B00DA11D621F739F72
:1033A000B00DA11D621F839FA00D611D221F749F80
:1033B0003327A00D611D231F849F600D211D822FC7
:1033C000762F6A2F11249F5750409AF0F1F08823EE
:1033D0004AF0EE0FFF1FBB1F661F771F881F91501B
:1033E0005040A9F79E3F510580F00C940C1A0C94A4
:1033F000571A5F3FE4F3983ED4F386957795679527
:10340000B795F795E7959F5FC1F7FE2B880F911D44
:103410009695879597F9089597F99F6780E870E0EA
:1034200060E008959FEF80EC089500240A9416163A
:10343000170618060906089500240A9412161306A2
:10344000140605060895092E0394000C11F4882330
:1034500052F0BB0F40F4BF2B11F460FF04C06F5F4C
:103460007F4F8F4F9F4F089557FD9058440F551F22
:1034700059F05F3F71F04795880F97FB991F61F0F6
:103480009F3F79F087950895121613061406551F6D
:10349000F2CF4695F1DF08C0161617061806991FD9
:1034A000F1CF86957105610508940895E894BB27CE
:1034B00066277727CB0197F90895052E97FB1EF411
:1034C00000940E94741A57FD07D00E948F1A07FCBF
:1034D00003D04EF40C94741A509540953095219574
:1034E0003F4F4F4F5F4F0895909580957095619530
:1034F0007F4F8F4F9F4F08950E94B11AA59F900D47
:10350000B49F900DA49F800D911D11240895B7FFC5
:103510000C947C1A0E947C1A821B930B0895A1E2E2
:103520001A2EAA1BBB1BFD010DC0AA1FBB1FEE1F3D
:10353000FF1FA217B307E407F50720F0A21BB30B88
:10354000E40BF50B661F771F881F991F1A9469F704
:1035500060957095809590959B01AC01BD01CF0160
:103560000895A29FB001B39FC001A39F700D811D5C
:103570001124911DB29F700D811D1124911D08957C
:103580005058BB27AA270E94D81A0C94231A0E94CD
:10359000151A38F00E941C1A20F039F49F3F19F4D4
:1035A00026F40C94121A0EF4E095E7FB0C940C1A16
:1035B000E92F0E94341A58F3BA1762077307840779
:1035C000950720F079F4A6F50C94561A0EF4E095C0
:1035D0000B2EBA2FA02D0B01B90190010C01CA01CD
:1035E000A0011124FF27591B99F0593F50F4503E78
:1035F00068F11A16F040A22F232F342F4427585F6A
:10360000F3CF469537952795A795F0405395C9F781
:103610007EF41F16BA0B620B730B840BBAF0915039
:10362000A1F0FF0FBB1F661F771F881FC2F70EC0D8
:10363000BA0F621F731F841F48F4879577956795AB
:10364000B795F7959E3F08F0B0CF9395880F08F097
:103650009927EE0F9795879508950E94411B0C942A
:10366000231A0E941C1A58F00E94151A40F029F4DF
:103670005F3F29F00C940C1A51110C94571A0C94BA
:10368000121A0E94341A68F39923B1F3552391F367
:10369000951B550BBB27AA2762177307840738F0C1
:1036A0009F5F5F4F220F331F441FAA1FA9F335D01E
:1036B0000E2E3AF0E0E832D091505040E695001CD2
:1036C000CAF72BD0FE2F29D0660F771F881FBB1F8C
:1036D000261737074807AB07B0E809F0BB0B802D6A
:1036E000BF01FF2793585F4F3AF09E3F510578F096
:1036F0000C940C1A0C94571A5F3FE4F3983ED4F3E1
:10370000869577956795B795F7959F5FC9F7880F69
:10371000911D9695879597F90895E1E0660F771FBB
:10372000881FBB1F621773078407BA0720F0621B4C
:10373000730B840BBA0BEE1F88F7E09508950E9477
:103740003C1A88F09F5798F0B92F9927B751B0F0DD
:10375000E1F0660F771F881F991F1AF0BA95C9F715
:1037600014C0B13091F00E94561AB1E008950C9443
:10377000561A672F782F8827B85F39F0B93FCCF3F6
:10378000869577956795B395D9F73EF49095809592
:10379000709561957F4F8F4F9F4F08950E947B19C1
:1037A00008F48FEF089519F416F40C94121A0C947F
:1037B000191C0E943C1AB8F39923C9F3B6F39F571A
:1037C000550B87FF0E94271C0024A0E640EA9001C9
:1037D00080585695979528F4805C660F771F881F50
:1037E00020F026173707480730F4621B730B840B51
:1037F000202931294A2BA695179407942025312595
:103800004A2758F7660F771F881F20F026173707BB
:10381000480730F4620B730B840B200D311D411DE2
:10382000A09581F7B901842F9158880F96958795B7
:1038300008959F3F31F0915020F4879577956795D3
:10384000B795880F911D9695879597F90895915092
:103850005040660F771F881FD2F70895991B79E0B3
:1038600004C0991F961708F0961B881F7A95C9F710
:1038700080950895EE0FFF1F881F8BBF0790F6916C
:10388000E02D19940F931F93CF93DF93823091050E
:1038900010F482E090E0E0915604F091570430E09B
:1038A00020E0B0E0A0E0309799F42115310509F44B
:1038B0004AC0281B390B24303105D8F58A819B81F9
:1038C0006115710589F1FB0193838283FE0111C0AB
:1038D000408151810281138148175907E0F0481750
:1038E000590799F4109761F012960C93129713965A
:1038F0001C933296CF01DF91CF911F910F910895C4
:103900000093560410935704F4CF2115310551F05C
:103910004217530738F0A901DB019A01BD01DF010D
:10392000F801C1CFEF01F9CF90935704809356046B
:10393000CDCFFE01E20FF31F819391932250310905
:1039400039832883D7CF2091540430915504232BF9
:1039500041F42091080230910902309355042093DC
:10396000540420910602309107022115310541F4DB
:103970002DB73EB740910A0250910B02241B350B24
:10398000E0915404F0915504E217F307A0F42E1BC4
:103990003F0B2817390778F0AC014E5F5F4F2417B3
:1039A000350748F04E0F5F1F509355044093540461
:1039B000819391939FCFF0E0E0E09CCFCF93DF9392
:1039C0000097E9F0FC01329713821282A09156040D
:1039D000B0915704ED0130E020E01097A1F4208170
:1039E0003181820F931F2091540430915504281780
:1039F000390709F061C0F0935504E0935404DF9156
:103A0000CF910895EA01CE17DF07E8F54A815B817F
:103A10009E0141155105B1F7E901FB83EA83499104
:103A20005991C40FD51FEC17FD0761F48081918176
:103A30000296840F951FE90199838883828193817F
:103A40009B838A83F0E0E0E012968D919C9113971E
:103A50000097B9F52D913C911197CD010296820FF7
:103A6000931F20915404309155042817390739F6D3
:103A7000309751F51092570410925604B0935504A4
:103A8000A0935404BCCFD383C28340815181840F5F
:103A9000951FC817D90761F44E5F5F4F88819981E0
:103AA000480F591F518340838A819B81938382836E
:103AB0002115310509F0B0CFF0935704E093560477
:103AC0009ECFFD01DC01C0CF13821282D7CF4F926F
:103AD0005F926F927F928F929F92AF92BF92CF929E
:103AE000DF92EF92FF920F931F93CF93DF938C019E
:103AF000009799F4CB01DF91CF911F910F91FF9027
:103B0000EF90DF90CF90BF90AF909F908F907F907D
:103B10006F905F904F900C94421CFC01E60FF71FD2
:103B20009C0122503109E217F30708F4AEC0D90115
:103B3000CD91DC911197C617D70720F1C530D1057B
:103B400078F0CE0104978617970750F0C61BD70B65
:103B50002297C193D1936D937C93CF010E94DE1C79
:103B6000C801DF91CF911F910F91FF90EF90DF90EF
:103B7000CF90BF90AF909F908F907F906F905F900D
:103B80004F9008955B01AC1ABD0A4C018C0E9D1E2E
:103B9000A0915604B0915704512C412CF12CE12CEA
:103BA000109731F58091540490915504881599052A
:103BB00009F05CC04616570608F058C0809106020E
:103BC00090910702009741F48DB79EB740910A0289
:103BD00050910B02841B950BE817F90708F055C0AC
:103BE000F0935504E0935404F90171836083B8CFD6
:103BF0008D919C91119712966C90129713967C90D0
:103C00001397A815B90559F56C0142E0C40ED11CF3
:103C1000CA14DB0420F1AC014A195B09DA011296DF
:103C2000159780F06282738251834083D9016D932E
:103C30007C93E114F10471F0D7011396FC93EE9399
:103C400012978ECF22968C0F9D1FF901918380834E
:103C5000F301EFCFF0935704E093560481CF481659
:103C6000590608F42C017D01D3019ACFCB010E94A3
:103C7000421C7C01009749F0AE01B8010E94481E29
:103C8000C8010E94DE1C87016BCF10E000E068CF06
:103C9000FB01DC0102C001900D9241505040D8F769
:103CA0000895FC018191861721F08823D9F799277F
:103CB00008953197CF010895FB01DC0101900D9229
:103CC0000020E1F70895FB0151915523A9F0BF01B0
:103CD000DC014D9145174111E1F759F4CD010190F7
:103CE000002049F04D9140154111C9F3FB014111EC
:103CF000EFCF81E090E00197089511E0C4E7D1E0B3
:103D000000E006C0802FFE010E943A1C2196011D92
:0E3D1000C537D10780E00807A9F7F894FFCF68
:103D1E00FFFF5A0001FF0000580480000000000061
:103D2E00ED08D7081109B6087D08B30B0000000096
:103D3E003F02A901D6018C020702E501F9010D0A25
:103D4E00002352554E21002353544F502100234F30
:103D5E004B2100484F4D45005343454E31005343D0
:103D6E00454E320023580059005A0053002342009A
:023D7E005600ED
:00000001FF
