:100000000C9445010C9476010C9476010C947601C5
:100010000C9476010C9476010C9476010C94760184
:100020000C9476010C948E0B0C948E0B0C948E0B0E
:100030000C9476010C94450A0C9476010C9476018C
:100040000C9476010C9476010C9476010C94760154
:100050000C9476010C9476010C9476010C94440B6C
:100060000C9476010C940E0B0C94E40A0C9476011B
:100070000C9476010C9476010C9476010C94760124
:100080000C9476010C9476010C9476010C94760114
:100090000C9476010C9476010C9476010C94760104
:1000A0000C9476010C9476010C9476010C947601F4
:1000B0000C9476010C9476010C9476010C947601E4
:1000C0000C9476010C9476010C9476010C947601D4
:1000D0000C9476010C9476010C9476010C947601C4
:1000E0000C9476010C9429030C942D100C940A03A3
:1000F0000C9426100C941F030C942F030C941403DF
:100100000C9478010C94B4010C94980B0C94080294
:100110000C94A5010C944E020C944F030C94100304
:100120000C944B030C9437030C941C030C94341064
:100130000C9441030C9416020C9433030C94250385
:100140000C9413100C941F100C9418100C949B0218
:100150000C9404100C944A030C9445030C9418035B
:100160000C943D0300002100240027002A002D00EC
:100170003000330001010000040107010A01000002
:1001800020002300260029002C002F00320000014F
:10019000000003010601090100000A0B02090C0D11
:1001A0000E0807030401000000000000000000002A
:1001B000000000000000000000000000000000003F
:1001C00000000000121110000000000000000000FC
:1001D000000000000000000000000000000002011C
:1001E0000210202008081020401020408002010248
:1001F0000108040201010204081020408080402010
:10020000100804020180040201804020100804024A
:1002100001080402010102040810204080010204C8
:10022000081020408000002200250028002B002E0E
:10023000003100340002010000050108010B010536
:10024000050505070508080808020202020A0A084F
:100250000804040404010101010101010103030375
:100260000303030303040707070C0C0C0C0C0C0C12
:100270000C0202020206060606060606060B0B0B19
:100280000B0B0B0B0B00980B341011241FBECFEF80
:10029000D1E2DEBFCDBF00E00CBF23E0A4ECB2E0B2
:1002A00001C01D92A33CB207E1F712E0A0E0B2E06A
:1002B000E4ECF5E200E00BBF02C007900D92A43C15
:1002C000B107D9F711E0C4E4D1E000E006C02197FE
:1002D0000109802FFE010E948010C334D10780E005
:1002E0000807A9F70E943A0C0C94D0120C94000055
:1002F000AF92BF92CF92DF92EF92FF920F931F9334
:10030000CF93DF936C017B018B01040F151FEB0171
:100310005E01AE18BF08C017D10759F06991D60128
:10032000ED91FC910190F081E02DC6011995892B8A
:1003300079F7C501DF91CF911F910F91FF90EF9059
:10034000DF90CF90BF90AF900895FC01538D448D06
:10035000252F30E0842F90E0821B930B541710F070
:10036000CF96089501970895FC01918D828D98177D
:1003700061F0A28DAE0FBF2FB11D5D968C91928D55
:100380009F5F9F73928F90E008958FEF9FEF089586
:100390002FB7F8948091080390910903A0910A0364
:1003A000B0910B032FBF8093140390931503A09378
:1003B0001603B09317038CE093E00E94B40197FFFB
:1003C00026C02FB7F8948091080390910903A0915B
:1003D0000A03B0910B032FBF4091140350911503F2
:1003E0006091160370911703841B950BA60BB70B36
:1003F0004091100350911103609112037091130307
:1004000084179507A607B707B0F28FEF9FEF0895FF
:10041000FC01918D828D981731F0828DE80FF11DCE
:10042000858D90E008958FEF9FEF0895FC01918DE9
:10043000228D892F90E0805C9F4F821B91098F73E2
:10044000992708958CE093E00E94160221E0892B01
:1004500009F420E0822F0895FC01A48DA80FB92F84
:10046000B11DA35ABF4F2C91848D90E001968F73DC
:100470009927848FA689B7892C93A089B1898C91FB
:10048000837080648C93938D848D981306C002884A
:10049000F389E02D80818F7D80830895EF92FF9214
:1004A0000F931F93CF93DF93EC0181E0888F9B8D97
:1004B0008C8D98131AC0E889F989808185FF15C051
:1004C0009FB7F894EE89FF896083E889F989808174
:1004D0008370806480839FBF81E090E0DF91CF9143
:1004E0001F910F91FF90EF900895F62E0B8D10E065
:1004F0000F5F1F4F0F731127E02E8C8D8E110CC0D4
:100500000FB607FCFACFE889F989808185FFF5CF1E
:10051000CE010E942C02F1CFEB8DEC0FFD2FF11DCF
:10052000E35AFF4FF0829FB7F8940B8FEA89FB895B
:1005300080818062CFCFCF93DF93EC01888D8823B9
:10054000B9F0AA89BB89E889F9898C9185FD03C036
:10055000808186FD0DC00FB607FCF7CF8C9185FF1B
:10056000F2CF808185FFEDCFCE010E942C02E9CF32
:10057000DF91CF91089580E090E0892B29F00E94CF
:10058000220281110E94000080E090E0892B49F056
:1005900080E090E0892B29F00E94000081110E94E8
:1005A000000080E090E0892B49F080E090E0892B0A
:1005B00029F00E94000081110E94000080E090E07C
:1005C000892B49F080E090E0892B29F00E940000FF
:1005D00081110C94000008958150823108F05AC0B6
:1005E000E82FF0E08827E850FD4F8F4F0C948010E3
:1005F00018031C030A03100314034A031F032503F3
:1006000029032F03330337033D0341034A03450303
:100610004B034F03809180008F7780938000089573
:10062000809180008F7DF9CF80918000877FF5CF0A
:1006300084B58F7784BD089584B58F7DFBCF80917D
:10064000B0008F778093B00008958091B0008F7DC7
:10065000F9CF809190008F778093900008958091DA
:1006600090008F7DF9CF80919000877FF5CF8091AA
:10067000A0008F778093A00008958091A0008F7DC7
:10068000F9CF8091A000877FF5CF809120018F77EF
:10069000809320010895809120018F7DF9CF809172
:1006A0002001877FF5CFCF93DF93282F30E0F9012A
:1006B000E856FE4F8491F901E152FE4FD491F901C1
:1006C000E15CFD4FC491CC23A1F081110E94EC02AA
:1006D000EC2FF0E0EE0FFF1FE258FE4FA591B49112
:1006E000EC91ED2381E090E009F480E0DF91CF917F
:1006F000089580E090E0FACF1F93CF93DF93282FE7
:1007000030E0F901E856FE4F8491F901E152FE4FC5
:10071000D491F901E15CFD4FC491CC23A9F0162FCF
:1007200081110E94EC02EC2FF0E0EE0FFF1FEB5D59
:10073000FD4FA591B4918FB7F894EC91111108C0B9
:10074000D095DE23DC938FBFDF91CF911F91089569
:10075000DE2BF8CFCF93DF9390E0FC01E152FE4F08
:100760002491815C9D4FFC0184918823C9F090E025
:10077000880F991FFC01EC59FE4FA591B491FC0123
:10078000EB5DFD4FC591D49161110DC09FB7F894F9
:100790008C91209582238C938881282328839FBF66
:1007A000DF91CF910895623051F49FB7F8943C9156
:1007B000822F809583238C93E8812E2BEFCF8FB7E8
:1007C000F894EC912E2B2C938FBFEACF3FB7F8947F
:1007D0008091C7029091C802A091C902B091CA024B
:1007E00026B5A89B05C02F3F19F00196A11DB11D8C
:1007F0003FBFBA2FA92F982F8827BC01CD01620FC8
:10080000711D811D911D42E0660F771F881F991F82
:100810004A95D1F70895CF92DF92EF92FF920F930E
:100820001F93CF93DF9300D000D000D0CDB7DEB7B9
:10083000C090B803D090B903E090BA03F090BB0326
:100840000E94E6036C157D058E059F0550F40E94FD
:10085000E6036093B8037093B9038093BA0390934F
:10086000BB030E94E6030091B8031091B9032091E5
:10087000BA033091BB03601B710B820B930B6C327C
:10088000714081059105A0F2F8948091AD0390919B
:10089000AE039A838983E091B203F091B303DF0141
:1008A0001196808189879091A903E091BC03F09112
:1008B000BD038091BE03992309F449C09081982B10
:1008C00098879081809589238F838F818C8388E09E
:1008D0008B8358856F8149853B812C8189819A81E1
:1008E000508347FD252F3A952083262F39F0441F4A
:1008F00000C000006083000000C0F2CF38E04D91DE
:1009000060830000019761F7F093BD03E093BC039F
:1009100049873B832C839A83898378940E94E603DA
:100920006093B8037093B9038093BA039093BB03A9
:1009300029960FB6F894DEBF0FBECDBFDF91CF91E1
:100940001F910F91FF90EF90DF90CF9008959081CD
:10095000982B98879081809589238F838F818E83B0
:1009600088E08D8358856F8149853D812E818981FD
:100970009A81508347FD252F00C000C0208300C00E
:1009800000C000C000C000C060830000262F3A9560
:1009900041F0441F000000C000C000C000C000C003
:1009A000E8CF38E04D9100C0608300C0019709F79F
:1009B000F093BD03E093BC0349873D832E83ABCF07
:1009C0008F929F92AF92BF92CF92DF92EF92FF925F
:1009D0004B015C010E94E6036B017C010E94E6036F
:1009E0006C197D098E099F09683E73408105910548
:1009F000A8F321E0821A9108A108B10888EEC80E78
:100A000083E0D81EE11CF11C81149104A104B104FF
:100A100029F7FF90EF90DF90CF90BF90AF909F901D
:100A20008F900895FC0180819181009711F00C94C2
:100A300024110895CF93DF93DC011496ED91FC917E
:100A40006E177F0728F54115510511F19F01261BEF
:100A5000370B4217530708F49A01DB01EC01888138
:100A60009981E21BF30BFD83EC83AF01461B570B0F
:100A7000260F371FBC01620F731F8A0F9B1F0E9436
:100A8000A712E881F9818C819D81E80FF91F1082FE
:100A9000DF91CF910895CF93DF93DC0114962D91D0
:100AA0003C911597232B79F0FB01CD91DC9160816E
:100AB0007181CE010E94B612009729F08C1B9D0B0C
:100AC000DF91CF9108958FEF9FEFFACFFC01248142
:100AD0003581232B39F421E0FB018081882349F003
:100AE00020E007C0808191810E94971221E0892B2C
:100AF000B9F7822F08950F931F93CF93DF93EC01E3
:100B000088819981009759F02A813B812617370700
:100B100030F081E0DF91CF911F910F9108958B010B
:100B20006F5F7F4F0E94AD11009759F099838883C2
:100B30001B830A832C813D81232B59F7FC011082F2
:100B4000E8CF80E0E7CFEF92FF920F931F93CF9310
:100B5000DF93EC017B018A01BA010E947B052881A9
:100B60003981811114C02115310519F0C9010E9484
:100B70002411198218821D821C821B821A82CE01C6
:100B8000DF91CF911F910F91FF90EF9008951D83FA
:100B90000C83B701C9010E94A012F1CFFB01DC0157
:100BA00011961C921E9213961C921E9212971596E5
:100BB0001C921E9214978617970749F060817181E5
:100BC0006115710521F0448155810C94A3050895A8
:100BD000FC01118210821382128215821482FB01A1
:100BE00001900020E9F73197AF01461B570B0C9499
:100BF000A305AF92BF92CF92DF92EF92FF920F9335
:100C00001F93CF93DF93EC017B01DB0114960D91D1
:100C10001C91F80131972FEF3FEFD12CC12C90E0C0
:100C200080E050E040E0E817F90734F14130510529
:100C300039F1BC016F5F7F4F5B018017910760F452
:100C4000D7016D917C916115710531F0680F791FA5
:100C5000DB016C916B3319F0E817F90759F469015E
:100C6000BFEFCB1ADB0A9501E817F90709F09C01E1
:100C700041E050E0C501D7CF4130510509F04DC0EA
:100C800059012C153D0510F05601690166E272E02C
:100C9000CE010E94E805F70104811581A016B10676
:100CA00018F5C016D10608F48601D7016D917C9124
:100CB000FB01E00FF11FD08010826A0D7B1D6115D2
:100CC0007105F1F0FB0101900020E9F73197AF01C8
:100CD000461B570BCE010E94A305F701808191812D
:100CE000080F191FD801DC92CE01DF91CF911F911F
:100CF0000F91FF90EF90DF90CF90BF90AF9008954D
:100D000088819981009711F00E942411198218821C
:100D10001D821C821B821A82E0CF66E272E0CE0145
:100D20000E94E805E1CFCF92DF92EF92FF920F93FE
:100D30001F93CF93DF931F921F92CDB7DEB78C0125
:100D4000C62E66E272E00E94E8050E94C8010C2CE3
:100D5000000CDD0897FD23C08C159D0501F18983EA
:100D60001A82F801E480F580FFEFEF1AFF0AB7015D
:100D7000C8010E947B05882379F0F8012081318128
:100D800084819581BE016F5F7F4F820F931F0E9408
:100D9000A012F801F582E4820E94C801DBCFC801ED
:100DA0000F900F90DF91CF911F910F91FF90EF90D7
:100DB000DF90CF9008959F92AF92BF92CF92DF9233
:100DC000EF92FF920F931F93CF93DF9300D000D049
:100DD000CDB7DEB77C0103E010E095E2C92E92E0CA
:100DE000D92E01501109F70101900020E9F7319740
:100DF000AF014E195F09B7018CE093E00E947801C2
:100E000069E170E080E090E00E94E00486E0A82EB6
:100E1000B12C81E0A81AB10839F18CE093E00E946E
:100E2000160218161906ACF70E94C80197FF982EF3
:100E300083E29812EECF61E070E080E090E00E94E3
:100E4000E0046C2DCE0101960E9493066BE772E0E0
:100E5000CE0101960E946605882301F1CE0101961C
:100E60000E94120510E000E08CE093E00E949B02DB
:100E70000115110509F0B5CF26960FB6F894DEBF1F
:100E80000FBECDBFDF91CF911F910F91FF90EF90DB
:100E9000DF90CF90BF90AF909F900895CE010196C4
:100EA0000E941205B6CFFF920F931F93CF93DF934B
:100EB0008C01C091D802C093D902D091D702D093AF
:100EC000D80287E00E945303F82E8093D7028091C6
:100ED000D4028093D5028091D3028093D4028BE018
:100EE0000E9453038093D3028091D0028093D10259
:100EF0008091CF028093D00286E00E9453038093BA
:100F0000CF028091CC028093CD028091CB0280935E
:100F1000CC028DE00E9453038093CB02DF1119C0F5
:100F2000CD1317C08091DA02C81799F0C093DA0286
:100F300087E292E0C1110BC00130110531F48091BC
:100F40000102811169C0109206038DE192E00E94B6
:100F5000DB068091D4029091D30289131AC090913C
:100F6000D502891316C09091D602891791F080930B
:100F7000D602811159C00130110539F48091010266
:100F8000882309F44DC01092060381E392E00E9489
:100F9000DB068091D0029091CF02891319C0909105
:100FA000D102891315C09091D202891789F08093DC
:100FB000D202811140C00130110531F4809100024C
:100FC000811135C01092050385E492E00E94DB0692
:100FD0008091CC029091CB02891337C09091CD02C1
:100FE000891333C09091CE02891779F18093CE0294
:100FF000811128C00130110531F48091000288234D
:10100000E9F01092050389E592E0DF91CF911F91FD
:101010000F91FF900C94DB0681E08093060395CF3F
:1010200081E080930603B1CF8BE392E0B0CF81E003
:1010300080930503C9CF8FE492E0C8CF81E080930D
:101040000503E1CF83E692E0E0CFDF91CF911F91DE
:101050000F91FF90089581E090E00E9453078091E6
:1010600006038823F1F061E08AE00E947C0380910E
:10107000010261E0811101C060E082E00E947C0316
:1010800080910503882381F061E085E00E947C0364
:101090008091000261E0811101C060E084E00C9465
:1010A0007C0360E08AE0EACF60E085E0F8CFFC01F5
:1010B00080819181009789F00E944410623071050F
:1010C000B9F17CF461157105C9F06130710529F140
:1010D0001092DC021092DB0226C060E070E0CB01CF
:1010E000EDCF6330710599F16430710589F78FEFA9
:1010F00090E09093DC028093DB0220C08FEF90E0C1
:101100009093DC028093DB029093DE028093DD02F9
:101110009093E0028093DF0208958FEF90E0909328
:10112000DC028093DB021092DE021092DD020AC024
:101130001092DC021092DB028FEF90E09093DE02BF
:101140008093DD021092E0021092DF020895109267
:10115000DC021092DB021092DE021092DD028FEFB1
:1011600090E0D6CF0F931F93CF93DF93CDB7DEB729
:10117000A4970FB6F894DEBF0FBECDBF8CE093E00E
:101180000E941602181619060CF0D1C00E94C80160
:1011900097FF182F133209F0C6C061E070E080E0BD
:1011A00090E00E94E00465E272E0CE014F960E945A
:1011B0009306BE01615E7F4FCE0149960E94CE0527
:1011C000BE01675E7F4FCE0101960E94CE05BE0133
:1011D0006F5F7F4FCE0143960E94F905CE010196C5
:1011E0000E9412054F89588D4F5F5F4F70E060E09D
:1011F000CE0149960E941A056DE672E0CE01439633
:101200000E946605882309F4DCC0BE01675E7F4F3B
:10121000CE0101960E94CE05BE016F5F7F4FCE01C9
:101220000D960E94F905CE0101960E94120549898A
:101230005A894F5F5F4F70E060E0CE0149960E948F
:101240001A05BE01675E7F4FCE0101960E94CE0552
:10125000BE016F5F7F4FCE0107960E94F905CE0158
:1012600001960E9412054B855C854F5F5F4F70E0D1
:1012700060E0CE0149960E941A056D8D7E8D615009
:10128000710941E050E0CE0149960E941A05BE0165
:10129000675E7F4FCE0101960E94CE0560E772E047
:1012A000CE010D960E946605882309F45BC060E7B5
:1012B00072E0CE0107960E946605882309F442C0B9
:1012C0001092060362E772E0CE0107960E9466055F
:1012D0008823E1F181E080930102CE0101960E9412
:1012E0001205CE0107960E941205CE010D960E94AE
:1012F000120510E000E0CE0143960E941205CE01D7
:1013000049960E94120544E050E06AE772E0012B22
:1013100011F06FE772E08CE093E00E947801CE015B
:101320004F960E9412058CE093E00E949B02A496C7
:101330000FB6F894DEBF0FBECDBFDF91CF911F91E6
:101340000F91089581E080930603BCCF64E772E0BB
:10135000CE0107960E946605882309F4BECF10923D
:101360000102BBCF62E772E0CE010D960E946605D6
:10137000882309F4B2CF60E772E0CE0107960E949D
:101380006605882371F01092050362E772E0CE01D2
:1013900007960E946605882341F081E08093000251
:1013A0009CCF81E080930503F0CF64E772E0CE012B
:1013B00007960E946605882309F48FCF10920002D9
:1013C0008CCF66E772E0CE0101960E94E805BE016F
:1013D0006F5F7F4FCE0143960E944B058C01CE017B
:1013E00001960E94120517FD4DC0BE01675E7F4F3A
:1013F000CE0101960E94CE05BE016F5F7F4FCE01E8
:101400000D960E94F905CE0101960E9412054989A8
:101410005A894F5F5F4F70E060E0CE0149960E94AD
:101420001A056D8D7E8D6150710941E050E0CE014D
:1014300049960E941A05BE01675E7F4FCE0107964E
:101440000E94CE0560E772E0CE0101960E94E80599
:10145000BE016F5F7F4FCE010D960E944B058C0140
:10146000CE0101960E94120517FD3BCFBE01695FB8
:101470007F4FCE0101960E94CE05CE0101960E94BB
:1014800057082BCF0FEF1FEF36CF1F920F920FB6DB
:101490000F9211240BB60F922F933F934F935F93AC
:1014A0006F937F938F939F93AF93BF93EF93FF932C
:1014B0008091F5029091F602A091F702B091F802A6
:1014C000892B8A2B8B2BE1F19091E402E091E502CC
:1014D000F091E6028081892780838091F5029091C6
:1014E000F602A091F702B091F802181619061A0632
:1014F0001B069CF48091F5029091F602A091F702F0
:10150000B091F8020197A109B1098093F502909377
:10151000F602A093F702B093F802FF91EF91BF910A
:10152000AF919F918F917F916F915F914F913F917B
:101530002F910F900BBE0F900FBE0F901F9018951C
:1015400080910202EEEDF1E0E4919FEF90930202B0
:10155000E230E9F040F4EE2389F0E13091F060E010
:101560000E947C03DACFE43049F110F1E530B9F79D
:10157000909173009D7F90937300F1CF10926E0055
:10158000EECF90916F009D7F90936F00E8CF909188
:1015900070009D7F9093700091E09093B0009091C7
:1015A000B100987F94609093B1001092B300D7CFB0
:1015B000909171009D7F90937100D1CF90917200B6
:1015C0009D7F90937200CBCF1F920F920FB60F9218
:1015D00011240BB60F922F933F934F935F936F930A
:1015E0007F938F939F93AF93BF93EF93FF938CE081
:1015F00093E00E942C02FF91EF91BF91AF919F91D8
:101600008F917F916F915F914F913F912F910F90AB
:101610000BBE0F900FBE0F901F9018951F920F9248
:101620000FB60F9211240BB60F922F938F939F93A7
:10163000EF93FF93E0911C03F0911D038081E091F3
:101640002203F091230382FD1DC090818091250328
:101650008F5F8F7320912603821741F0E09125035D
:10166000F0E0E45FFC4F958F80932503FF91EF91AD
:101670009F918F912F910F900BBE0F900FBE0F90E7
:101680001F9018958081F2CF1F920F920FB60F9284
:1016900011242F933F938F939F93AF93BF93809188
:1016A000080390910903A0910A03B0910B033091B4
:1016B000C60223E0230F2D3758F50196A11DB11D59
:1016C0002093C6028093080390930903A0930A0312
:1016D000B0930B038091C7029091C802A091C902F8
:1016E000B091CA020196A11DB11D8093C7029093CB
:1016F000C802A093C902B093CA02BF91AF919F9153
:101700008F913F912F910F900FBE0F901F901895C2
:1017100026E8230F0296A11DB11DD2CF1F920F9272
:101720000FB60F9211240F900FBE0F901F901895B7
:1017300010920F0310920E0388EE93E0A0E0B0E049
:101740008093100390931103A0931203B09313039B
:101750008FE092E090930D0380930C0385EC90E072
:10176000909319038093180384EC90E090931B03EB
:1017700080931A0380EC90E090931D0380931C03E8
:1017800081EC90E090931F0380931E0382EC90E025
:10179000909321038093200386EC90E090932303A1
:1017A00080932203109225031092260310922703A0
:1017B000109228031092AA031092B1031092B8035A
:1017C0001092B9031092BA031092BB0381E0809388
:1017D000B7038093B4031092B50392E09093B603DD
:1017E0008093A90383E090E09093AE038093AD03D0
:1017F0000E9488109093B3038093B203009789F1FD
:1018000023E0FC0111922A95E9F781E090E09093A2
:10181000AC038093AB038BE290E09093B003809392
:10182000AF038091AA03882341F061E08BE20E941C
:10183000AA0360E08BE20E947C03EAE6F2E0E49116
:10184000F0E0EE0FFF1FEB5DFD4F859194919093BB
:10185000BD038093BC03EAE0F2E0E491E093BE03B1
:1018600008951092AE031092AD031092AC03109243
:10187000AB03D1CFCF93DF9300D000D000D01F9225
:10188000CDB7DEB7789484B5826084BD84B58160BD
:1018900084BD85B5826085BD85B5816085BD80913B
:1018A0006E00816080936E001092810080918100B3
:1018B00082608093810080918100816080938100AB
:1018C000809180008160809380008091B10084606D
:1018D0008093B1008091B00081608093B0008091CE
:1018E000910082608093910080919100816080934B
:1018F0009100809190008160809390008091A10080
:1019000082608093A1008091A10081608093A100FA
:101910008091A00081608093A0008091210182606D
:101920008093210180912101816080932101809128
:10193000200181608093200180917A0084608093EF
:101940007A0080917A00826080937A0080917A0098
:10195000816080937A0080917A00806880937A0019
:101960001092C100E0911C03F0911D0382E080837E
:10197000E0911803F09119031082E0911A03F0919D
:101980001B0380E1808310922403E0912003F091F7
:10199000210386E08083E0911E03F0911F03808184
:1019A00080618083E0911E03F0911F038081886035
:1019B0008083E0911E03F0911F0380818068808303
:1019C000E0911E03F0911F0380818F7D80838AE068
:1019D00090E0A0E0B0E08093100390931103A093F7
:1019E0001203B093130361E08BE20E94AA0361E04B
:1019F00083E00E94AA0361E082E00E94AA0361E002
:101A00008AE00E94AA0361E084E00E94AA0361E0E8
:101A100085E00E94AA0362E08BE00E94AA0362E0D4
:101A200087E00E94AA0362E08DE00E94AA0362E0C0
:101A300086E00E94AA0362E08CE00E94AA0381E093
:101A40008093010380930303809304038093020334
:101A50008093DA028093D9028093D8028093D702D0
:101A60008093D6028093D5028093D4028093D302D0
:101A70008093D2028093D1028093D0028093CF02D0
:101A80008093CE028093CD028093CC028093CB02D0
:101A9000809307038091AF039091B00397FD08C036
:101AA00061E00E94AA0360E08091AF030E947C0382
:101AB00081E08093AA038091B2039091B303892BB4
:101AC00011F00E940B0464E872E0CE0101960E94BE
:101AD000E805CE0101960E945708CE0101960E94AA
:101AE000120588248A94982C5401A7EBCA2EA2E2EE
:101AF000DA2EB2EEEB2EB1E0FB2E12E0212E312CCD
:101B00008091AB039091AC03892B09F452C02091D2
:101B1000DB028091DD0290E0B0E0A0E0BA2FA92FB7
:101B2000982F8827A22B2091DF02822B2D0166247B
:101B30007724292F3A2F4B2F55272F833887498712
:101B40005A873F81282F6091B103662391F0462F79
:101B500050E0449D9001459D300D549D300D112461
:101B6000432E4F81649F90011124689FC00111246E
:101B7000292FE091B7038091B2039091B303409174
:101B8000B403E41721F0E80FF92FF11D1082E09162
:101B9000B403E80FF92FF11D4082E091B503E80F7F
:101BA000F92FF11D30833091B603830F911DFC0195
:101BB00020838091B2039091B303892B11F00E948E
:101BC0000B0480910202833089F18F3F09F445C0F4
:101BD0000E94B20880910302909104028230910524
:101BE00009F4B7C10CF0ACC1009709F4B2C1019778
:101BF00009F4B3C180910703882309F40BC2E09173
:101C00000302F09104023196E830F10508F000C2B9
:101C10008827E25FF14F8F4F0C948010041013104F
:101C200018101F1026102D101F101310EEEDF1E0EC
:101C3000149117FDCDCF61E083E00E94AA03112328
:101C400009F4DFC0123009F0F0C08091B100887F44
:101C500084608093B10089E863C183E080930202CD
:101C6000EEEDF1E01491812F1F3F09F4B1CF123056
:101C700009F468C060F4112379F1113009F444C00B
:101C800087FDA6CF61E083E00E94AA03DBCF14307A
:101C900009F499C008F478C0153091F7109220012A
:101CA000109221018091210188608093210180910F
:101CB0002101816080932101E2E4F2E08491E82F28
:101CC000F0E0EE0FFF1FEB5DFD4F85919491F70162
:101CD00084918093E102AFCF14BC15BC84B58260BF
:101CE00084BD85B5816085BDE2E4F2E08491E82F92
:101CF000F0E0EE0FFF1FEB5DFD4F85919491F70132
:101D000084918093E80297CF109280001092810016
:101D10008091810088608093810080918100816042
:101D200080938100E2E4F2E08491E82FF0E0EE0F8E
:101D3000FF1FEB5DFD4F85919491F7018491809396
:101D4000E70279CF1092B0001092B1008091B000FC
:101D500082608093B0008091B10081608093B10077
:101D6000E2E4F2E08491E82FF0E0EE0FFF1FEB5D7C
:101D7000FD4F859194919093E6028093E502F701DF
:101D800084918093E40257CF1092900010929100BA
:101D90008091910088608093910080919100816092
:101DA00080939100E2E4F2E08491E82FF0E0EE0FFE
:101DB000FF1FEB5DFD4F85919491F7018491809316
:101DC000E30213E038CF1092A0001092A10080919E
:101DD000A10088608093A1008091A1008160809320
:101DE000A100E2E4F2E08491E82FF0E0EE0FFF1FA3
:101DF000EB5DFD4F85919491F70184918093E20210
:101E00001ACF85B5887F836085BD89E887BD8092BC
:101E1000FD029092FE02A092FF02B0920003809118
:101E20006E00826080936E00D3CE1130C1F4809139
:101E30008100887F816080938100D0928900C09268
:101E400088008092F9029092FA02A092FB02B0926E
:101E5000FC0280916F00826080936F00B9CE1330D6
:101E6000C1F480919100887F816080939100D0922D
:101E70009900C09298008092F1029092F202A09292
:101E8000F302B092F402809171008260809371003D
:101E90009FCE1430C1F48091A100887F816080932F
:101EA000A100D092A900C092A8008092ED02909269
:101EB000EE02A092EF02B092F00280917200826076
:101EC0008093720085CE1530C1F480912101887F06
:101ED000816080932101D0922901C09228018092D3
:101EE000E9029092EA02A092EB02B092EC02809199
:101EF00073008260809373006BCE123081F034F4F3
:101F0000112359F0113009F063CE97CF143049F204
:101F10000CF4ADCF1530F9F25BCE87EB77CF87EBC2
:101F20008093B3008092F5029092F602A092F7029D
:101F3000B092F8028091700082608093700048CE69
:101F40008430910509F45DC00CF454CE07970CF071
:101F500051CE81E0809307034DCE709004037092C0
:101F6000030360900203609204038CE00E94530319
:101F70008093020368120EC076100CC0809101039A
:101F8000781641F070920103711004C086E892E067
:101F90000E94DB0690E080E00E94530780910603D8
:101FA0008823B1F081E992E00E94DB06809106036C
:101FB000882309F41FCE0E94B2080E942B0880914A
:101FC00006038111F3CF8DE992E00E94DB0612CE69
:101FD00080910503882309F40DCE8AEA92E00E94DD
:101FE000DB0680910503882309F404CE0E94B20821
:101FF0000E942B08809105038111F3CF86EB92E0BC
:10200000E4CF0E94B208F6CD1092040210920302AF
:102010001092070361E070E080E090E00E94E0042D
:102020000E94BB026DCD3092040220920302F0CFD9
:1020300024E030E03093040220930302E9CF41E032
:1020400050E05093040240930302E2CF86E090E018
:102050009093040280930302DBCFE5E0F0E0F0937D
:102060000402E0930302D4CF8091B2039091B303B2
:102070000E9424118091AF039091B00397FD03C09B
:1020800060E00C94AA0308951F93FC019927882708
:10209000BC01E89411911032E9F3193010F01E30B0
:1020A000C8F31B3251F01D3249F4689406C00E94F7
:1020B0006B10610F711D811D911D119110531A300C
:1020C000B0F33EF490958095709561957F4F8F4F5A
:1020D0009F4F1F910895592F482F372F262F660F96
:1020E000771F881F991F660F771F881F991F620F20
:1020F000731F841F951F660F771F881F991F0895F0
:10210000EE0FFF1F881F8BBF0790F691E02D1994EB
:102110000F931F93CF93DF938230910510F482E0E9
:1021200090E0E091C103F091C20330E020E0B0E024
:10213000A0E0309799F42115310509F44AC0281B15
:10214000390B24303105D8F58A819B8161157105E1
:1021500089F1FB0193838283FE0111C0408151818B
:102160000281138148175907E0F04817590799F47D
:10217000109761F012960C93129713961C93329657
:10218000CF01DF91CF911F910F9108950093C1036B
:102190001093C203F4CF2115310551F042175307B4
:1021A00038F0A901DB019A01BD01DF01F801C1CFBF
:1021B000EF01F9CF9093C2038093C103CDCFFE010D
:1021C000E20FF31F819391932250310939832883C1
:1021D000D7CF2091BF033091C003232B41F420912E
:1021E0000702309108023093C0032093BF0320916F
:1021F0000502309106022115310541F42DB73EB795
:102200004091090250910A02241B350BE091BF0353
:10221000F091C003E217F307A0F42E1B3F0B281721
:10222000390778F0AC014E5F5F4F2417350748F04F
:102230004E0F5F1F5093C0034093BF038193919350
:102240009FCFF0E0E0E09CCFCF93DF930097E9F0E1
:10225000FC01329713821282A091C103B091C20394
:10226000ED0130E020E01097A1F420813181820F50
:10227000931F2091BF033091C0032817390709F03D
:1022800061C0F093C003E093BF03DF91CF91089545
:10229000EA01CE17DF07E8F54A815B819E0141150F
:1022A0005105B1F7E901FB83EA8349915991C40FC4
:1022B000D51FEC17FD0761F4808191810296840F90
:1022C000951FE90199838883828193819B838A8307
:1022D000F0E0E0E012968D919C9113970097B9F58C
:1022E0002D913C911197CD010296820F931F209161
:1022F000BF033091C0032817390739F6309751F5DD
:102300001092C2031092C103B093C003A093BF0305
:10231000BCCFD383C28340815181840F951FC817DE
:10232000D90761F44E5F5F4F88819981480F591F2B
:10233000518340838A819B81938382832115310558
:1023400009F0B0CFF093C203E093C1039ECFFD012B
:10235000DC01C0CF13821282D7CF4F925F926F926F
:102360007F928F929F92AF92BF92CF92DF92EF9225
:10237000FF920F931F93CF93DF938C01009799F4F3
:10238000CB01DF91CF911F910F91FF90EF90DF90E4
:10239000CF90BF90AF909F908F907F906F905F9005
:1023A0004F900C948810FC01E60FF71F9C012250FF
:1023B0003109E217F30708F4AEC0D901CD91DC91E1
:1023C0001197C617D70720F1C530D10578F0CE0197
:1023D00004978617970750F0C61BD70B2297C19317
:1023E000D1936D937C93CF010E942411C801DF919A
:1023F000CF911F910F91FF90EF90DF90CF90BF9002
:10240000AF909F908F907F906F905F904F900895C6
:102410005B01AC1ABD0A4C018C0E9D1EA091C1033C
:10242000B091C203512C412CF12CE12C109731F5C5
:102430008091BF039091C0038815990509F05CC095
:102440004616570608F058C0809105029091060282
:10245000009741F48DB79EB74091090250910A024E
:10246000841B950BE817F90708F055C0F093C003DB
:10247000E093BF03F90171836083B8CF8D919C9184
:10248000119712966C90129713967C901397A8153B
:10249000B90559F56C0142E0C40ED11CCA14DB0425
:1024A00020F1AC014A195B09DA011296159780F008
:1024B0006282738251834083D9016D937C93E114CE
:1024C000F10471F0D7011396FC93EE9312978ECF1F
:1024D00022968C0F9D1FF90191838083F301EFCF2A
:1024E000F093C203E093C10381CF4816590608F464
:1024F0002C017D01D3019ACFCB010E9488107C0171
:10250000009749F0AE01B8010E948E12C8010E94E6
:10251000241187016BCF10E000E068CFFB01DC01E4
:1025200002C001900D9241505040D8F70895FB0130
:10253000DC018D91019080190110D9F3990B089558
:10254000FB01DC0101900D920020E1F70895FB01F1
:10255000DC014150504048F001900D920020C9F735
:1025600001C01D9241505040E0F70895FB01519188
:102570005523A9F0BF01DC014D9145174111E1F749
:1025800059F4CD010190002049F04D9140154111C1
:10259000C9F3FB014111EFCF81E090E0019708956D
:1025A00011E0C4E4D1E000E006C0802FFE010E94EB
:1025B00080102196011DC534D10780E00807A9F7D6
:0425C000F894FFCFBD
:1025C4000101FFFFFF0000C3038000000000004E74
:1025D400027801A5019B021602B401080223535399
:1025E4003B303B303B21002353533B303B313B21B9
:1025F400002353533B313B303B21002353533B31A6
:102604003B313B21002353533B323B303B210023DE
:1026140053533B323B313B21002353533B333B3039
:102624003B21002353533B333B313B21004D5400AA
:102634003000310032004C454400234F4B2100232D
:102644004B4F210033002353543B535441525421E4
:1026540000234D543B303B52554E3B2100234D54F7
:102664003B303B53544F503B2100234D543B313BB3
:1026740052554E3B2100234D543B313B53544F5054
:042684003B210000F6
:00000001FF
